{
  "transactions": [
    {
      "hash": "0x37036e3c9b5c1d01774571d9cd69af7b641c5239c863442965bf2c374f7f2f55",
      "transactionType": "CREATE",
      "contractName": "Vault",
      "contractAddress": "0x736c370af5aa2dd050817bc4cd05386adcd8d56d",
      "function": null,
      "arguments": [
        "0xc9F3817C925be9E1505f3288441a6Ed4736B5042"
      ],
      "transaction": {
        "from": "0xd81252d06c67a2f3cf3b377d9aae5d827f14f3b1",
        "gas": "0x5d3e9",
        "value": "0x0",
        "input": "0x60a03461007e57601f6104ea38819003918201601f19168301916001600160401b038311848410176100825780849260209460405283398101031261007e57516001600160a01b038116810361007e5760805260405161045390816100978239608051818181606c0152818161019f0152818161024201526103a40152f35b5f80fd5b634e487b7160e01b5f52604160045260245ffdfe6080604081815260049081361015610021575b505050361561001f575f80fd5b005b5f925f3560e01c90816334a4edea1461039257508063d0e30db0146102215763db006a7503610012573461021d5760209081600319360112610219578235925f198414610184575b847f00000000000000000000000000000000000000000000000000000000000000006001600160a01b0316803b15610180578180916044865180948193632770a7eb60e21b835233898401528b60248401525af180156101765761015e575b5080808087335af13d15610159573d67ffffffffffffffff8111610146578351906100fc601f8201601f19168701836103fb565b815286853d92013e5b156101385750907f222838db2794d11532d940e8dec38ae307ed0b63cd97c233322e221f998767a691519283523392a280f35b905163d3dedd7b60e01b8152fd5b634e487b7160e01b875260418352602487fd5b610105565b610167906103d3565b61017257845f6100c8565b8480fd5b84513d84823e3d90fd5b5080fd5b81516370a0823160e01b8152338183015290935082816024817f00000000000000000000000000000000000000000000000000000000000000006001600160a01b03165afa90811561020f5785916101de575b5092610069565b90508281813d8311610208575b6101f581836103fb565b8101031261020457515f6101d7565b5f80fd5b503d6101eb565b82513d87823e3d90fd5b8380fd5b8280fd5b50905f36600319011261020457341561034457815163292bdab360e11b81527f00000000000000000000000000000000000000000000000000000000000000006001600160a01b031691906020818381865afa90811561033a575f91610308575b50823b156102045760645f928386519586948593630ab714fb60e11b8552339085015234602485015260448401525af180156102fe576102eb575b50513481527fe1fffcc4923d04b559f4d29a8bfc6cda04eb5b0d3c460751c2402c5c5cc9109c60203392a280f35b6102f69192506103d3565b5f905f6102bd565b82513d5f823e3d90fd5b90506020813d602011610332575b81610323602093836103fb565b8101031261020457515f610282565b3d9150610316565b84513d5f823e3d90fd5b6020608492519162461bcd60e51b83528201526024808201527f596f75206e65656420746f2073656e6420736f6d652045746820746f206465706044820152631bdcda5d60e21b6064820152fd5b34610204575f366003190112610204577f00000000000000000000000000000000000000000000000000000000000000006001600160a01b03168152602090f35b67ffffffffffffffff81116103e757604052565b634e487b7160e01b5f52604160045260245ffd5b90601f8019910116810190811067ffffffffffffffff8211176103e75760405256fea264697066735822122036380cd30cf69f8848ac917f3f3f78f06183e13965c888a627d7beb06e21170764736f6c63430008180033000000000000000000000000c9f3817c925be9e1505f3288441a6ed4736b5042",
        "nonce": "0x1d",
        "chainId": "0x40d9"
      },
      "additionalContracts": [],
      "isFixedGasLimit": false
    },
    {
      "hash": "0x52e5311c3ac719faca2f7c4e69aa29a0f200af9304ed5154e0f15ac5241155b6",
      "transactionType": "CALL",
      "contractName": null,
      "contractAddress": "0xc9f3817c925be9e1505f3288441a6ed4736b5042",
      "function": "grantMintAndBurnRole(address)",
      "arguments": [
        "0x736C370af5aA2Dd050817bC4CD05386Adcd8D56d"
      ],
      "transaction": {
        "from": "0xd81252d06c67a2f3cf3b377d9aae5d827f14f3b1",
        "to": "0xc9f3817c925be9e1505f3288441a6ed4736b5042",
        "gas": "0x10586",
        "value": "0x0",
        "input": "0x7cfb3d71000000000000000000000000736c370af5aa2dd050817bc4cd05386adcd8d56d",
        "nonce": "0x1e",
        "chainId": "0x40d9"
      },
      "additionalContracts": [],
      "isFixedGasLimit": false
    }
  ],
  "receipts": [
    {
      "status": "0x1",
      "cumulativeGasUsed": "0x420fd2",
      "logs": [],
      "logsBloom": "0x00000000000000000000000000000000000000000000000000000000000000000000000000000000000000000000000000000000000000000000000000000000000000000000000000000000000000000000000000000000000000000000000000000000000000000000000000000000000000000000000000000000000000000000000000000000000000000000000000000000000000000000000000000000000000000000000000000000000000000000000000000000000000000000000000000000000000000000000000000000000000000000000000000000000000000000000000000000000000000000000000000000000000000000000000000000",
      "type": "0x2",
      "transactionHash": "0x37036e3c9b5c1d01774571d9cd69af7b641c5239c863442965bf2c374f7f2f55",
      "transactionIndex": "0x15",
      "blockHash": "0x9899c5d768986fb3d4e6df2cd862d23c76607c006e45fae34c40c1aa7662825c",
      "blockNumber": "0x5716e9",
      "gasUsed": "0x4a987",
      "effectiveGasPrice": "0xf4256",
      "from": "0xd81252d06c67a2f3cf3b377d9aae5d827f14f3b1",
      "to": null,
      "contractAddress": "0x736c370af5aa2dd050817bc4cd05386adcd8d56d"
    },
    {
      "status": "0x1",
      "cumulativeGasUsed": "0x437854",
      "logs": [
        {
          "address": "0xc9f3817c925be9e1505f3288441a6ed4736b5042",
          "topics": [
            "0x2f8788117e7eff1d82e926ec794901d17c78024a50270940304540a733656f0d",
            "0x7429555b03aa5cf08cc5fc0890c97db295c9cec5e6bb1544bcd7fd1430dae3e2",
            "0x000000000000000000000000736c370af5aa2dd050817bc4cd05386adcd8d56d",
            "0x000000000000000000000000d81252d06c67a2f3cf3b377d9aae5d827f14f3b1"
          ],
          "data": "0x",
          "blockHash": "0x9899c5d768986fb3d4e6df2cd862d23c76607c006e45fae34c40c1aa7662825c",
          "blockNumber": "0x5716e9",
          "transactionHash": "0x52e5311c3ac719faca2f7c4e69aa29a0f200af9304ed5154e0f15ac5241155b6",
          "transactionIndex": "0x17",
          "logIndex": "0x49",
          "removed": false
        }
      ],
      "logsBloom": "0x00000004000000000000000000000000001000000000000000000000000000000000000000000000000000000000004000000000000000000000000000010000000000000000000000000000000000020000000000000000000000000000000000000000000840000000000000000000000000000000000020000000000000000000000000000000000000000000000000000000000000000000000000000000000000000000000000000000000000000000000000000004001000000000000000000000000000000000000000020000000000000000000100000000000000000000000000000000000000000000200000010200000000000000000000000000",
      "type": "0x2",
      "transactionHash": "0x52e5311c3ac719faca2f7c4e69aa29a0f200af9304ed5154e0f15ac5241155b6",
      "transactionIndex": "0x17",
      "blockHash": "0x9899c5d768986fb3d4e6df2cd862d23c76607c006e45fae34c40c1aa7662825c",
      "blockNumber": "0x5716e9",
      "gasUsed": "0xd138",
      "effectiveGasPrice": "0xf4256",
      "from": "0xd81252d06c67a2f3cf3b377d9aae5d827f14f3b1",
      "to": "0xc9f3817c925be9e1505f3288441a6ed4736b5042",
      "contractAddress": null
    }
  ],
  "libraries": [],
  "pending": [],
  "returns": {
    "vault": {
      "internal_type": "contract Vault",
      "value": "0x736C370af5aA2Dd050817bC4CD05386Adcd8D56d"
    }
  },
  "timestamp": 1756494830740,
  "chain": 16601,
  "commit": null
}