{
  "transactions": [
    {
      "hash": "0x5fb5fb51ec110e09b226a4f37b976f3698b82d77bee250d6288f1e42a991a331",
      "transactionType": "CREATE",
      "contractName": "Vault",
      "contractAddress": "0x056c765eede2da129d36d7bba656b1f0f8d30d7f",
      "function": null,
      "arguments": [
        "0xf6C7bF63A9E8C33A16e35783cDb4984f86e55602"
      ],
      "transaction": {
        "from": "0xd81252d06c67a2f3cf3b377d9aae5d827f14f3b1",
        "gas": "0x5d3e9",
        "value": "0x0",
        "input": "0x60a03461007e57601f6104ea38819003918201601f19168301916001600160401b038311848410176100825780849260209460405283398101031261007e57516001600160a01b038116810361007e5760805260405161045390816100978239608051818181606c0152818161019f0152818161024201526103a40152f35b5f80fd5b634e487b7160e01b5f52604160045260245ffdfe6080604081815260049081361015610021575b505050361561001f575f80fd5b005b5f925f3560e01c90816334a4edea1461039257508063d0e30db0146102215763db006a7503610012573461021d5760209081600319360112610219578235925f198414610184575b847f00000000000000000000000000000000000000000000000000000000000000006001600160a01b0316803b15610180578180916044865180948193632770a7eb60e21b835233898401528b60248401525af180156101765761015e575b5080808087335af13d15610159573d67ffffffffffffffff8111610146578351906100fc601f8201601f19168701836103fb565b815286853d92013e5b156101385750907f222838db2794d11532d940e8dec38ae307ed0b63cd97c233322e221f998767a691519283523392a280f35b905163d3dedd7b60e01b8152fd5b634e487b7160e01b875260418352602487fd5b610105565b610167906103d3565b61017257845f6100c8565b8480fd5b84513d84823e3d90fd5b5080fd5b81516370a0823160e01b8152338183015290935082816024817f00000000000000000000000000000000000000000000000000000000000000006001600160a01b03165afa90811561020f5785916101de575b5092610069565b90508281813d8311610208575b6101f581836103fb565b8101031261020457515f6101d7565b5f80fd5b503d6101eb565b82513d87823e3d90fd5b8380fd5b8280fd5b50905f36600319011261020457341561034457815163292bdab360e11b81527f00000000000000000000000000000000000000000000000000000000000000006001600160a01b031691906020818381865afa90811561033a575f91610308575b50823b156102045760645f928386519586948593630ab714fb60e11b8552339085015234602485015260448401525af180156102fe576102eb575b50513481527fe1fffcc4923d04b559f4d29a8bfc6cda04eb5b0d3c460751c2402c5c5cc9109c60203392a280f35b6102f69192506103d3565b5f905f6102bd565b82513d5f823e3d90fd5b90506020813d602011610332575b81610323602093836103fb565b8101031261020457515f610282565b3d9150610316565b84513d5f823e3d90fd5b6020608492519162461bcd60e51b83528201526024808201527f596f75206e65656420746f2073656e6420736f6d652045746820746f206465706044820152631bdcda5d60e21b6064820152fd5b34610204575f366003190112610204577f00000000000000000000000000000000000000000000000000000000000000006001600160a01b03168152602090f35b67ffffffffffffffff81116103e757604052565b634e487b7160e01b5f52604160045260245ffd5b90601f8019910116810190811067ffffffffffffffff8211176103e75760405256fea264697066735822122036380cd30cf69f8848ac917f3f3f78f06183e13965c888a627d7beb06e21170764736f6c63430008180033000000000000000000000000f6c7bf63a9e8c33a16e35783cdb4984f86e55602",
        "nonce": "0x56",
        "chainId": "0x40d9"
      },
      "additionalContracts": [],
      "isFixedGasLimit": false
    },
    {
      "hash": "0x1d7d1965bdc30f11828a7edd3f5e348ac542cd22f49a0c25c4ee07196e1b35a9",
      "transactionType": "CALL",
      "contractName": null,
      "contractAddress": "0xf6c7bf63a9e8c33a16e35783cdb4984f86e55602",
      "function": "grantMintAndBurnRole(address)",
      "arguments": [
        "0x056c765EEDe2Da129d36d7bBA656B1f0f8d30D7f"
      ],
      "transaction": {
        "from": "0xd81252d06c67a2f3cf3b377d9aae5d827f14f3b1",
        "to": "0xf6c7bf63a9e8c33a16e35783cdb4984f86e55602",
        "gas": "0x10586",
        "value": "0x0",
        "input": "0x7cfb3d71000000000000000000000000056c765eede2da129d36d7bba656b1f0f8d30d7f",
        "nonce": "0x57",
        "chainId": "0x40d9"
      },
      "additionalContracts": [],
      "isFixedGasLimit": false
    }
  ],
  "receipts": [
    {
      "status": "0x1",
      "cumulativeGasUsed": "0x1a7ccd8",
      "logs": [],
      "logsBloom": "0x00000000000000000000000000000000000000000000000000000000000000000000000000000000000000000000000000000000000000000000000000000000000000000000000000000000000000000000000000000000000000000000000000000000000000000000000000000000000000000000000000000000000000000000000000000000000000000000000000000000000000000000000000000000000000000000000000000000000000000000000000000000000000000000000000000000000000000000000000000000000000000000000000000000000000000000000000000000000000000000000000000000000000000000000000000000",
      "type": "0x2",
      "transactionHash": "0x5fb5fb51ec110e09b226a4f37b976f3698b82d77bee250d6288f1e42a991a331",
      "transactionIndex": "0x21",
      "blockHash": "0x566f6aa20ad8141f9f43ed4aa6534f1d78c58fad4e8e1fd3b0c5b5dbfd862eb8",
      "blockNumber": "0x578b69",
      "gasUsed": "0x4a987",
      "effectiveGasPrice": "0xf4257",
      "from": "0xd81252d06c67a2f3cf3b377d9aae5d827f14f3b1",
      "to": null,
      "contractAddress": "0x056c765eede2da129d36d7bba656b1f0f8d30d7f"
    }
  ],
  "libraries": [],
  "pending": [
    "0x1d7d1965bdc30f11828a7edd3f5e348ac542cd22f49a0c25c4ee07196e1b35a9"
  ],
  "returns": {
    "vault": {
      "internal_type": "contract Vault",
      "value": "0x056c765EEDe2Da129d36d7bBA656B1f0f8d30D7f"
    }
  },
  "timestamp": 1756550143495,
  "chain": 16601,
  "commit": "1ef49ce"
}