{
  "transactions": [
    {
      "hash": "0x080f3dc9a9e308a5de90f8d04edc93cb0a248936b6f7f0716c32fe43df411085",
      "transactionType": "CREATE",
      "contractName": "Vault",
      "contractAddress": "0xe713658c63d592fbda313d2c1d34f34f075619c6",
      "function": null,
      "arguments": [
        "0x14bE2fe1849a8a3a52994CDBba1Ec6a31c810073"
      ],
      "transaction": {
        "from": "0xd81252d06c67a2f3cf3b377d9aae5d827f14f3b1",
        "gas": "0x5d3da",
        "value": "0x0",
        "input": "0x60a03461007e57601f6104ea38819003918201601f19168301916001600160401b038311848410176100825780849260209460405283398101031261007e57516001600160a01b038116810361007e5760805260405161045390816100978239608051818181606c0152818161019f0152818161024201526103a40152f35b5f80fd5b634e487b7160e01b5f52604160045260245ffdfe6080604081815260049081361015610021575b505050361561001f575f80fd5b005b5f925f3560e01c90816334a4edea1461039257508063d0e30db0146102215763db006a7503610012573461021d5760209081600319360112610219578235925f198414610184575b847f00000000000000000000000000000000000000000000000000000000000000006001600160a01b0316803b15610180578180916044865180948193632770a7eb60e21b835233898401528b60248401525af180156101765761015e575b5080808087335af13d15610159573d67ffffffffffffffff8111610146578351906100fc601f8201601f19168701836103fb565b815286853d92013e5b156101385750907f222838db2794d11532d940e8dec38ae307ed0b63cd97c233322e221f998767a691519283523392a280f35b905163d3dedd7b60e01b8152fd5b634e487b7160e01b875260418352602487fd5b610105565b610167906103d3565b61017257845f6100c8565b8480fd5b84513d84823e3d90fd5b5080fd5b81516370a0823160e01b8152338183015290935082816024817f00000000000000000000000000000000000000000000000000000000000000006001600160a01b03165afa90811561020f5785916101de575b5092610069565b90508281813d8311610208575b6101f581836103fb565b8101031261020457515f6101d7565b5f80fd5b503d6101eb565b82513d87823e3d90fd5b8380fd5b8280fd5b50905f36600319011261020457341561034457815163292bdab360e11b81527f00000000000000000000000000000000000000000000000000000000000000006001600160a01b031691906020818381865afa90811561033a575f91610308575b50823b156102045760645f928386519586948593630ab714fb60e11b8552339085015234602485015260448401525af180156102fe576102eb575b50513481527fe1fffcc4923d04b559f4d29a8bfc6cda04eb5b0d3c460751c2402c5c5cc9109c60203392a280f35b6102f69192506103d3565b5f905f6102bd565b82513d5f823e3d90fd5b90506020813d602011610332575b81610323602093836103fb565b8101031261020457515f610282565b3d9150610316565b84513d5f823e3d90fd5b6020608492519162461bcd60e51b83528201526024808201527f596f75206e65656420746f2073656e6420736f6d652045746820746f206465706044820152631bdcda5d60e21b6064820152fd5b34610204575f366003190112610204577f00000000000000000000000000000000000000000000000000000000000000006001600160a01b03168152602090f35b67ffffffffffffffff81116103e757604052565b634e487b7160e01b5f52604160045260245ffd5b90601f8019910116810190811067ffffffffffffffff8211176103e75760405256fea264697066735822122036380cd30cf69f8848ac917f3f3f78f06183e13965c888a627d7beb06e21170764736f6c6343000818003300000000000000000000000014be2fe1849a8a3a52994cdbba1ec6a31c810073",
        "nonce": "0x92",
        "chainId": "0x40d9"
      },
      "additionalContracts": [],
      "isFixedGasLimit": false
    },
    {
      "hash": "0x8afca2c3fa2235a5b0c57c285098c9ad46c8ad1c79b087ec7817654399bd2ba1",
      "transactionType": "CALL",
      "contractName": null,
      "contractAddress": "0x14be2fe1849a8a3a52994cdbba1ec6a31c810073",
      "function": "grantMintAndBurnRole(address)",
      "arguments": [
        "0xE713658c63D592FBdA313D2C1d34F34F075619C6"
      ],
      "transaction": {
        "from": "0xd81252d06c67a2f3cf3b377d9aae5d827f14f3b1",
        "to": "0x14be2fe1849a8a3a52994cdbba1ec6a31c810073",
        "gas": "0x10586",
        "value": "0x0",
        "input": "0x7cfb3d71000000000000000000000000e713658c63d592fbda313d2c1d34f34f075619c6",
        "nonce": "0x93",
        "chainId": "0x40d9"
      },
      "additionalContracts": [],
      "isFixedGasLimit": false
    }
  ],
  "receipts": [
    {
      "status": "0x1",
      "cumulativeGasUsed": "0x640352",
      "logs": [],
      "logsBloom": "0x00000000000000000000000000000000000000000000000000000000000000000000000000000000000000000000000000000000000000000000000000000000000000000000000000000000000000000000000000000000000000000000000000000000000000000000000000000000000000000000000000000000000000000000000000000000000000000000000000000000000000000000000000000000000000000000000000000000000000000000000000000000000000000000000000000000000000000000000000000000000000000000000000000000000000000000000000000000000000000000000000000000000000000000000000000000",
      "type": "0x2",
      "transactionHash": "0x080f3dc9a9e308a5de90f8d04edc93cb0a248936b6f7f0716c32fe43df411085",
      "transactionIndex": "0x1d",
      "blockHash": "0x3d00567469ef3521eefefdd05172f58d6e43622e4a481e4d518c35a0b8ae8523",
      "blockNumber": "0x57969e",
      "gasUsed": "0x4a97b",
      "effectiveGasPrice": "0xf424c",
      "from": "0xd81252d06c67a2f3cf3b377d9aae5d827f14f3b1",
      "to": null,
      "contractAddress": "0xe713658c63d592fbda313d2c1d34f34f075619c6"
    },
    {
      "status": "0x1",
      "cumulativeGasUsed": "0x64d48a",
      "logs": [
        {
          "address": "0x14be2fe1849a8a3a52994cdbba1ec6a31c810073",
          "topics": [
            "0x2f8788117e7eff1d82e926ec794901d17c78024a50270940304540a733656f0d",
            "0x7429555b03aa5cf08cc5fc0890c97db295c9cec5e6bb1544bcd7fd1430dae3e2",
            "0x000000000000000000000000e713658c63d592fbda313d2c1d34f34f075619c6",
            "0x000000000000000000000000d81252d06c67a2f3cf3b377d9aae5d827f14f3b1"
          ],
          "data": "0x",
          "blockHash": "0x3d00567469ef3521eefefdd05172f58d6e43622e4a481e4d518c35a0b8ae8523",
          "blockNumber": "0x57969e",
          "transactionHash": "0x8afca2c3fa2235a5b0c57c285098c9ad46c8ad1c79b087ec7817654399bd2ba1",
          "transactionIndex": "0x1e",
          "logIndex": "0x52",
          "removed": false
        }
      ],
      "logsBloom": "0x00000004008000000000000000000000000000000000000000000000000000000000000000000000000000000000000000000000000000000000010000010000000000000000000000000020000000020000000000000000000000000000000000000000000040000000000000000000000000000000000000000000000000000000000000000000000000000000000000000000000000000000000000000000000000000000000000000000000000000000000000000004001000000000000000000000000000000000000000020000000000000000000100000000000000000000000000000000000000000000000004000200040000000000000000000000",
      "type": "0x2",
      "transactionHash": "0x8afca2c3fa2235a5b0c57c285098c9ad46c8ad1c79b087ec7817654399bd2ba1",
      "transactionIndex": "0x1e",
      "blockHash": "0x3d00567469ef3521eefefdd05172f58d6e43622e4a481e4d518c35a0b8ae8523",
      "blockNumber": "0x57969e",
      "gasUsed": "0xd138",
      "effectiveGasPrice": "0xf424c",
      "from": "0xd81252d06c67a2f3cf3b377d9aae5d827f14f3b1",
      "to": "0x14be2fe1849a8a3a52994cdbba1ec6a31c810073",
      "contractAddress": null
    }
  ],
  "libraries": [],
  "pending": [],
  "returns": {
    "vault": {
      "internal_type": "contract Vault",
      "value": "0xE713658c63D592FBdA313D2C1d34F34F075619C6"
    }
  },
  "timestamp": 1756555451174,
  "chain": 16601,
  "commit": "1ef49ce"
}