{
  "transactions": [
    {
      "hash": "0xb4b46ff33176b108a823d657337dafe4f563933127599f108c90a65a915c16c7",
      "transactionType": "CALL",
      "contractName": null,
      "contractAddress": "0xa82e1dd2ead50fb919c277cb34e9db8859663207",
      "function": "applyChainUpdates((uint64,bool,bytes,bytes,(bool,uint128,uint128),(bool,uint128,uint128))[])",
      "arguments": [
        "[(16015286601757825753, true, 0x0000000000000000000000008dd3fd4db26bf1785f14fbb7e9208c9aafcc77bb, 0x000000000000000000000000c52df80b57d30ab0b46519e10673f4ef408d4207, (false, 0, 0), (false, 0, 0))]"
      ],
      "transaction": {
        "from": "0xd81252d06c67a2f3cf3b377d9aae5d827f14f3b1",
        "to": "0xa82e1dd2ead50fb919c277cb34e9db8859663207",
        "gas": "0x511a8",
        "value": "0x0",
        "input": "0xdb6327dc000000000000000000000000000000000000000000000000000000000000002000000000000000000000000000000000000000000000000000000000000000010000000000000000000000000000000000000000000000000000000000000020000000000000000000000000000000000000000000000000de41ba4fc9d91ad900000000000000000000000000000000000000000000000000000000000000010000000000000000000000000000000000000000000000000000000000000140000000000000000000000000000000000000000000000000000000000000018000000000000000000000000000000000000000000000000000000000000000000000000000000000000000000000000000000000000000000000000000000000000000000000000000000000000000000000000000000000000000000000000000000000000000000000000000000000000000000000000000000000000000000000000000000000000000000000000000000000000000000000000000000000000000000000000000000000000000000000000000000000000000000000000000000000000000000000000000000000000000000000000000000000000000200000000000000000000000008dd3fd4db26bf1785f14fbb7e9208c9aafcc77bb0000000000000000000000000000000000000000000000000000000000000020000000000000000000000000c52df80b57d30ab0b46519e10673f4ef408d4207",
        "nonce": "0x2b",
        "chainId": "0x40d9"
      },
      "additionalContracts": [],
      "isFixedGasLimit": false
    }
  ],
  "receipts": [
    {
      "status": "0x1",
      "cumulativeGasUsed": "0xdc9f76",
      "logs": [
        {
          "address": "0xa82e1dd2ead50fb919c277cb34e9db8859663207",
          "topics": [
            "0x8d340f17e19058004c20453540862a9c62778504476f6756755cb33bcd6c38c2"
          ],
          "data": "0x000000000000000000000000000000000000000000000000de41ba4fc9d91ad900000000000000000000000000000000000000000000000000000000000001000000000000000000000000000000000000000000000000000000000000000000000000000000000000000000000000000000000000000000000000000000000000000000000000000000000000000000000000000000000000000000000000000000000000000000000000000000000000000000000000000000000000000000000000000000000000000000000000000000000000000000000000000000000000000000000000000000000000000000000000000000000000000000000000000000000000000000000000000000000000000000000000000000000000000020000000000000000000000000c52df80b57d30ab0b46519e10673f4ef408d4207",
          "blockHash": "0xba1cfea6c2d62fa76fabee0713a48cd28ec07cd1f037d93f8e03b2d4a12b828f",
          "blockNumber": "0x571af7",
          "transactionHash": "0xb4b46ff33176b108a823d657337dafe4f563933127599f108c90a65a915c16c7",
          "transactionIndex": "0x19",
          "logIndex": "0x46",
          "removed": false
        }
      ],
      "logsBloom": "0x00000000000000400000000000000000000000000000000000000000000000000004000000000000000000000000000000000000000000000004000000000000000000000000000000000000000000000000400000080000000000000000000000000000000000000000000000000000000000000000000000000000000000000000000000000000000000000000000000000000000000000000000000000000000000000000000000000000000000000000000000000000000000000000000000000000000000000000000000000000000000000000000000000000000000000000000000000000000000000000000000000000000000000100000000000000",
      "type": "0x2",
      "transactionHash": "0xb4b46ff33176b108a823d657337dafe4f563933127599f108c90a65a915c16c7",
      "transactionIndex": "0x19",
      "blockHash": "0xba1cfea6c2d62fa76fabee0713a48cd28ec07cd1f037d93f8e03b2d4a12b828f",
      "blockNumber": "0x571af7",
      "gasUsed": "0x40e20",
      "effectiveGasPrice": "0xf424d",
      "from": "0xd81252d06c67a2f3cf3b377d9aae5d827f14f3b1",
      "to": "0xa82e1dd2ead50fb919c277cb34e9db8859663207",
      "contractAddress": null
    }
  ],
  "libraries": [],
  "pending": [],
  "returns": {},
  "timestamp": 1756496716117,
  "chain": 16601,
  "commit": null
}