{
  "transactions": [
    {
      "hash": "0xce2b4988071580e8ec2cd12caf2e7ab1fd0634135243aab362f43be61f7df055",
      "transactionType": "CALL",
      "contractName": null,
      "contractAddress": "0xe8a50dc2717781200752454d96814929c2ff3107",
      "function": "applyChainUpdates((uint64,bool,bytes,bytes,(bool,uint128,uint128),(bool,uint128,uint128))[])",
      "arguments": [
        "[(16015286601757825753, true, 0x0000000000000000000000007adc26608fb7d43eac0ad3a6583ab2733c6ff1db, 0x000000000000000000000000921eda3a8ee0aae737f2f7533dfc939781b24e69, (false, 0, 0), (false, 0, 0))]"
      ],
      "transaction": {
        "from": "0xd81252d06c67a2f3cf3b377d9aae5d827f14f3b1",
        "to": "0xe8a50dc2717781200752454d96814929c2ff3107",
        "gas": "0x511a8",
        "value": "0x0",
        "input": "0xdb6327dc000000000000000000000000000000000000000000000000000000000000002000000000000000000000000000000000000000000000000000000000000000010000000000000000000000000000000000000000000000000000000000000020000000000000000000000000000000000000000000000000de41ba4fc9d91ad900000000000000000000000000000000000000000000000000000000000000010000000000000000000000000000000000000000000000000000000000000140000000000000000000000000000000000000000000000000000000000000018000000000000000000000000000000000000000000000000000000000000000000000000000000000000000000000000000000000000000000000000000000000000000000000000000000000000000000000000000000000000000000000000000000000000000000000000000000000000000000000000000000000000000000000000000000000000000000000000000000000000000000000000000000000000000000000000000000000000000000000000000000000000000000000000000000000000000000000000000000000000000000000000000000000000000200000000000000000000000007adc26608fb7d43eac0ad3a6583ab2733c6ff1db0000000000000000000000000000000000000000000000000000000000000020000000000000000000000000921eda3a8ee0aae737f2f7533dfc939781b24e69",
        "nonce": "0x5c",
        "chainId": "0x40d9"
      },
      "additionalContracts": [],
      "isFixedGasLimit": false
    }
  ],
  "receipts": [
    {
      "status": "0x1",
      "cumulativeGasUsed": "0x10896d4",
      "logs": [
        {
          "address": "0xe8a50dc2717781200752454d96814929c2ff3107",
          "topics": [
            "0x8d340f17e19058004c20453540862a9c62778504476f6756755cb33bcd6c38c2"
          ],
          "data": "0x000000000000000000000000000000000000000000000000de41ba4fc9d91ad900000000000000000000000000000000000000000000000000000000000001000000000000000000000000000000000000000000000000000000000000000000000000000000000000000000000000000000000000000000000000000000000000000000000000000000000000000000000000000000000000000000000000000000000000000000000000000000000000000000000000000000000000000000000000000000000000000000000000000000000000000000000000000000000000000000000000000000000000000000000000000000000000000000000000000000000000000000000000000000000000000000000000000000000000000020000000000000000000000000921eda3a8ee0aae737f2f7533dfc939781b24e69",
          "blockHash": "0x605d75f896a4ef800faa308635681388b7a566b47baf1897dd952c8d2f29fde4",
          "blockNumber": "0x578bd4",
          "transactionHash": "0xce2b4988071580e8ec2cd12caf2e7ab1fd0634135243aab362f43be61f7df055",
          "transactionIndex": "0x2a",
          "logIndex": "0x65",
          "removed": false
        }
      ],
      "logsBloom": "0x00000000000000400000000000000000000000000000000000000000000000000000000000000000000000000000000080000000000000000004000000000000000000000000000000000000000000000000000000000000000000000000000000000000000000000000000000000000000000000000000000000000000000000000000000040000000000000000000000000000000000000000000000000000000000000000000000040000000000000000000000000000000000000000000000000000000000000000000000000000000000000000000000000000000000000000000000000000000000000000000000000000000000000100000000000000",
      "type": "0x2",
      "transactionHash": "0xce2b4988071580e8ec2cd12caf2e7ab1fd0634135243aab362f43be61f7df055",
      "transactionIndex": "0x2a",
      "blockHash": "0x605d75f896a4ef800faa308635681388b7a566b47baf1897dd952c8d2f29fde4",
      "blockNumber": "0x578bd4",
      "gasUsed": "0x40e20",
      "effectiveGasPrice": "0xf4256",
      "from": "0xd81252d06c67a2f3cf3b377d9aae5d827f14f3b1",
      "to": "0xe8a50dc2717781200752454d96814929c2ff3107",
      "contractAddress": null
    }
  ],
  "libraries": [],
  "pending": [],
  "returns": {},
  "timestamp": 1756550335376,
  "chain": 16601,
  "commit": "1ef49ce"
}