{
  "transactions": [
    {
      "hash": "0xe227bd23d11badc98bb7707e76a16d2be05f9501119961076fadc2c25afe2767",
      "transactionType": "CALL",
      "contractName": null,
      "contractAddress": "0xfbed5a531344dbc88df2a24ddec0024c6fd2b80b",
      "function": "applyChainUpdates((uint64,bool,bytes,bytes,(bool,uint128,uint128),(bool,uint128,uint128))[])",
      "arguments": [
        "[(16015286601757825753, true, 0x00000000000000000000000070981620e5405acc1510645f39f1984a4fc2f4ac, 0x000000000000000000000000a515e451a4b049a7681a6a02eb982736d51b9e06, (false, 0, 0), (false, 0, 0))]"
      ],
      "transaction": {
        "from": "0xd81252d06c67a2f3cf3b377d9aae5d827f14f3b1",
        "to": "0xfbed5a531344dbc88df2a24ddec0024c6fd2b80b",
        "gas": "0x511a8",
        "value": "0x0",
        "input": "0xdb6327dc000000000000000000000000000000000000000000000000000000000000002000000000000000000000000000000000000000000000000000000000000000010000000000000000000000000000000000000000000000000000000000000020000000000000000000000000000000000000000000000000de41ba4fc9d91ad9000000000000000000000000000000000000000000000000000000000000000100000000000000000000000000000000000000000000000000000000000001400000000000000000000000000000000000000000000000000000000000000180000000000000000000000000000000000000000000000000000000000000000000000000000000000000000000000000000000000000000000000000000000000000000000000000000000000000000000000000000000000000000000000000000000000000000000000000000000000000000000000000000000000000000000000000000000000000000000000000000000000000000000000000000000000000000000000000000000000000000000000000000000000000000000000000000000000000000000000000000000000000000000000000000000000000002000000000000000000000000070981620e5405acc1510645f39f1984a4fc2f4ac0000000000000000000000000000000000000000000000000000000000000020000000000000000000000000a515e451a4b049a7681a6a02eb982736d51b9e06",
        "nonce": "0x98",
        "chainId": "0x40d9"
      },
      "additionalContracts": [],
      "isFixedGasLimit": false
    }
  ],
  "receipts": [
    {
      "status": "0x1",
      "cumulativeGasUsed": "0x567fc3",
      "logs": [
        {
          "address": "0xfbed5a531344dbc88df2a24ddec0024c6fd2b80b",
          "topics": [
            "0x8d340f17e19058004c20453540862a9c62778504476f6756755cb33bcd6c38c2"
          ],
          "data": "0x000000000000000000000000000000000000000000000000de41ba4fc9d91ad900000000000000000000000000000000000000000000000000000000000001000000000000000000000000000000000000000000000000000000000000000000000000000000000000000000000000000000000000000000000000000000000000000000000000000000000000000000000000000000000000000000000000000000000000000000000000000000000000000000000000000000000000000000000000000000000000000000000000000000000000000000000000000000000000000000000000000000000000000000000000000000000000000000000000000000000000000000000000000000000000000000000000000000000000000020000000000000000000000000a515e451a4b049a7681a6a02eb982736d51b9e06",
          "blockHash": "0x68aab6c689d09a8cf30ae1b16ff4b48925586d650664e926117da7d07b4f6fc2",
          "blockNumber": "0x579719",
          "transactionHash": "0xe227bd23d11badc98bb7707e76a16d2be05f9501119961076fadc2c25afe2767",
          "transactionIndex": "0x16",
          "logIndex": "0x3b",
          "removed": false
        }
      ],
      "logsBloom": "0x00000000000000400000000000001000020000000000000000000000000000000000000000000000000000000000000000000000000000000004004000000000000000000000000000000000000000000000000000000000000000000000000000000000000000000000000000000000000000000000000000000000000000000000000000000000000000000000000000000000000000000000000000000000000000000000000000000000000000000000000000000000000000000000000000000000000000000000000000000000000000000000000000000000000000000000000000000000000000000000000000000000000000000100000000000000",
      "type": "0x2",
      "transactionHash": "0xe227bd23d11badc98bb7707e76a16d2be05f9501119961076fadc2c25afe2767",
      "transactionIndex": "0x16",
      "blockHash": "0x68aab6c689d09a8cf30ae1b16ff4b48925586d650664e926117da7d07b4f6fc2",
      "blockNumber": "0x579719",
      "gasUsed": "0x40e20",
      "effectiveGasPrice": "0xf424e",
      "from": "0xd81252d06c67a2f3cf3b377d9aae5d827f14f3b1",
      "to": "0xfbed5a531344dbc88df2a24ddec0024c6fd2b80b",
      "contractAddress": null
    }
  ],
  "libraries": [],
  "pending": [],
  "returns": {},
  "timestamp": 1756555672231,
  "chain": 16601,
  "commit": "1ef49ce"
}