{
  "transactions": [
    {
      "hash": "0xad5265df26400762231e11d082d10f78ddca49dc72ec347261499bb01fd2b3f7",
      "transactionType": "CALL",
      "contractName": null,
      "contractAddress": "0xbd7b3646eabd58d1d622469b97fd0b6cac591d64",
      "function": "applyChainUpdates((uint64,bool,bytes,bytes,(bool,uint128,uint128),(bool,uint128,uint128))[])",
      "arguments": [
        "[(16015286601757825753, true, 0x0000000000000000000000003346f2cc72d108f53794aa81f1ff840fbd6008f5, 0x000000000000000000000000da10089c41cf052fd92fbd7d96cd354a7f019392, (false, 0, 0), (false, 0, 0))]"
      ],
      "transaction": {
        "from": "0xd81252d06c67a2f3cf3b377d9aae5d827f14f3b1",
        "to": "0xbd7b3646eabd58d1d622469b97fd0b6cac591d64",
        "gas": "0x511a8",
        "value": "0x0",
        "input": "0xdb6327dc000000000000000000000000000000000000000000000000000000000000002000000000000000000000000000000000000000000000000000000000000000010000000000000000000000000000000000000000000000000000000000000020000000000000000000000000000000000000000000000000de41ba4fc9d91ad900000000000000000000000000000000000000000000000000000000000000010000000000000000000000000000000000000000000000000000000000000140000000000000000000000000000000000000000000000000000000000000018000000000000000000000000000000000000000000000000000000000000000000000000000000000000000000000000000000000000000000000000000000000000000000000000000000000000000000000000000000000000000000000000000000000000000000000000000000000000000000000000000000000000000000000000000000000000000000000000000000000000000000000000000000000000000000000000000000000000000000000000000000000000000000000000000000000000000000000000000000000000000000000000000000000000000200000000000000000000000003346f2cc72d108f53794aa81f1ff840fbd6008f50000000000000000000000000000000000000000000000000000000000000020000000000000000000000000da10089c41cf052fd92fbd7d96cd354a7f019392",
        "nonce": "0x8e",
        "chainId": "0x40d9"
      },
      "additionalContracts": [],
      "isFixedGasLimit": false
    }
  ],
  "receipts": [
    {
      "status": "0x1",
      "cumulativeGasUsed": "0x548474",
      "logs": [
        {
          "address": "0xbd7b3646eabd58d1d622469b97fd0b6cac591d64",
          "topics": [
            "0x8d340f17e19058004c20453540862a9c62778504476f6756755cb33bcd6c38c2"
          ],
          "data": "0x000000000000000000000000000000000000000000000000de41ba4fc9d91ad900000000000000000000000000000000000000000000000000000000000001000000000000000000000000000000000000000000000000000000000000000000000000000000000000000000000000000000000000000000000000000000000000000000000000000000000000000000000000000000000000000000000000000000000000000000000000000000000000000000000000000000000000000000000000000000000000000000000000000000000000000000000000000000000000000000000000000000000000000000000000000000000000000000000000000000000000000000000000000000000000000000000000000000000000000020000000000000000000000000da10089c41cf052fd92fbd7d96cd354a7f019392",
          "blockHash": "0xe1de32f882fcf9114a7d018d74fda5f5fbda081f615a73f3549bad1abcfa7c53",
          "blockNumber": "0x57959c",
          "transactionHash": "0xad5265df26400762231e11d082d10f78ddca49dc72ec347261499bb01fd2b3f7",
          "transactionIndex": "0x13",
          "logIndex": "0x36",
          "removed": false
        }
      ],
      "logsBloom": "0x00000000000000400000000000000000000000800000000000000000000000000000000000000000000000000000000000000000000000000004000000000000000000000000000000000000000000000000000000000000000000000000000000000000000000000000000000000000000000000000040000000000000000000000000000000000000000000000000000000000000000000000000000000000000000000000000000000000000000000000000000000000000000000000000000000000000000000010000000000000000000000000000000000000000000000000000000000000000000000000000000000000000000000100000000000000",
      "type": "0x2",
      "transactionHash": "0xad5265df26400762231e11d082d10f78ddca49dc72ec347261499bb01fd2b3f7",
      "transactionIndex": "0x13",
      "blockHash": "0xe1de32f882fcf9114a7d018d74fda5f5fbda081f615a73f3549bad1abcfa7c53",
      "blockNumber": "0x57959c",
      "gasUsed": "0x40e20",
      "effectiveGasPrice": "0xf424d",
      "from": "0xd81252d06c67a2f3cf3b377d9aae5d827f14f3b1",
      "to": "0xbd7b3646eabd58d1d622469b97fd0b6cac591d64",
      "contractAddress": null
    }
  ],
  "libraries": [],
  "pending": [],
  "returns": {},
  "timestamp": 1756554972476,
  "chain": 16601,
  "commit": "1ef49ce"
}