{
  "transactions": [
    {
      "hash": "0x0c9e5fd1d9e6e1acf0b56c20e5b05f16d904683125f2ee53f38ca5e955523587",
      "transactionType": "CALL",
      "contractName": null,
      "contractAddress": "0x071ec974222d54336457c1bc432c65cf76e741d9",
      "function": "applyChainUpdates((uint64,bool,bytes,bytes,(bool,uint128,uint128),(bool,uint128,uint128))[])",
      "arguments": [
        "[(16015286601757825753, true, 0x00000000000000000000000065ab9bc34399c92330483eedaf29de555707b41a, 0x000000000000000000000000ae56ab387bcdf0e5fcaa5a77c380ba09832eaca0, (false, 0, 0), (false, 0, 0))]"
      ],
      "transaction": {
        "from": "0xd81252d06c67a2f3cf3b377d9aae5d827f14f3b1",
        "to": "0x071ec974222d54336457c1bc432c65cf76e741d9",
        "gas": "0x511a8",
        "value": "0x0",
        "input": "0xdb6327dc000000000000000000000000000000000000000000000000000000000000002000000000000000000000000000000000000000000000000000000000000000010000000000000000000000000000000000000000000000000000000000000020000000000000000000000000000000000000000000000000de41ba4fc9d91ad9000000000000000000000000000000000000000000000000000000000000000100000000000000000000000000000000000000000000000000000000000001400000000000000000000000000000000000000000000000000000000000000180000000000000000000000000000000000000000000000000000000000000000000000000000000000000000000000000000000000000000000000000000000000000000000000000000000000000000000000000000000000000000000000000000000000000000000000000000000000000000000000000000000000000000000000000000000000000000000000000000000000000000000000000000000000000000000000000000000000000000000000000000000000000000000000000000000000000000000000000000000000000000000000000000000000000002000000000000000000000000065ab9bc34399c92330483eedaf29de555707b41a0000000000000000000000000000000000000000000000000000000000000020000000000000000000000000ae56ab387bcdf0e5fcaa5a77c380ba09832eaca0",
        "nonce": "0x66",
        "chainId": "0x40d9"
      },
      "additionalContracts": [],
      "isFixedGasLimit": false
    }
  ],
  "receipts": [
    {
      "status": "0x1",
      "cumulativeGasUsed": "0x15f2cb2",
      "logs": [
        {
          "address": "0x071ec974222d54336457c1bc432c65cf76e741d9",
          "topics": [
            "0x8d340f17e19058004c20453540862a9c62778504476f6756755cb33bcd6c38c2"
          ],
          "data": "0x000000000000000000000000000000000000000000000000de41ba4fc9d91ad900000000000000000000000000000000000000000000000000000000000001000000000000000000000000000000000000000000000000000000000000000000000000000000000000000000000000000000000000000000000000000000000000000000000000000000000000000000000000000000000000000000000000000000000000000000000000000000000000000000000000000000000000000000000000000000000000000000000000000000000000000000000000000000000000000000000000000000000000000000000000000000000000000000000000000000000000000000000000000000000000000000000000000000000000000020000000000000000000000000ae56ab387bcdf0e5fcaa5a77c380ba09832eaca0",
          "blockHash": "0xf3b7fe243611f4b3be6c6918983e7bde0f29263a75701275e9f3f3221eceed56",
          "blockNumber": "0x578d01",
          "transactionHash": "0x0c9e5fd1d9e6e1acf0b56c20e5b05f16d904683125f2ee53f38ca5e955523587",
          "transactionIndex": "0x36",
          "logIndex": "0x8e",
          "removed": false
        }
      ],
      "logsBloom": "0x00000000000000400000000000000000000040000000000000000000000000000000000000000000000000000000000000000000000000000004000000000000000000000000000000000000000000000000000000000000000000000000000000000000000000000000000000000000000000000000000000000000000000000040000000000000000000000000000000000000000000000000000000000000800000000000000000000000000000000000000000000000000000000000000000000000000000000000000000000000000000000000000000000000000000000000000000000000000000000000000000000000000000000100000000000000",
      "type": "0x2",
      "transactionHash": "0x0c9e5fd1d9e6e1acf0b56c20e5b05f16d904683125f2ee53f38ca5e955523587",
      "transactionIndex": "0x36",
      "blockHash": "0xf3b7fe243611f4b3be6c6918983e7bde0f29263a75701275e9f3f3221eceed56",
      "blockNumber": "0x578d01",
      "gasUsed": "0x40e20",
      "effectiveGasPrice": "0xf4256",
      "from": "0xd81252d06c67a2f3cf3b377d9aae5d827f14f3b1",
      "to": "0x071ec974222d54336457c1bc432c65cf76e741d9",
      "contractAddress": null
    }
  ],
  "libraries": [],
  "pending": [],
  "returns": {},
  "timestamp": 1756550892901,
  "chain": 16601,
  "commit": "1ef49ce"
}