{
  "transactions": [
    {
      "hash": "0x23dd54d0bce6a4e1274f32f14536cfe62b5fa0aef5a6d367208f963c4fff862b",
      "transactionType": "CALL",
      "contractName": null,
      "contractAddress": "0x169ef1a010244c003971cf43de2932547902bf6f",
      "function": "applyChainUpdates((uint64,bool,bytes,bytes,(bool,uint128,uint128),(bool,uint128,uint128))[])",
      "arguments": [
        "[(16015286601757825753, true, 0x000000000000000000000000d38522e190cd07dde20b82af41591a275662a0bc, 0x000000000000000000000000e7dbe61c17df192c0b4a61837d4aac9aa4a10ee4, (false, 0, 0), (false, 0, 0))]"
      ],
      "transaction": {
        "from": "0xd81252d06c67a2f3cf3b377d9aae5d827f14f3b1",
        "to": "0x169ef1a010244c003971cf43de2932547902bf6f",
        "gas": "0x511a8",
        "value": "0x0",
        "input": "0xdb6327dc000000000000000000000000000000000000000000000000000000000000002000000000000000000000000000000000000000000000000000000000000000010000000000000000000000000000000000000000000000000000000000000020000000000000000000000000000000000000000000000000de41ba4fc9d91ad90000000000000000000000000000000000000000000000000000000000000001000000000000000000000000000000000000000000000000000000000000014000000000000000000000000000000000000000000000000000000000000001800000000000000000000000000000000000000000000000000000000000000000000000000000000000000000000000000000000000000000000000000000000000000000000000000000000000000000000000000000000000000000000000000000000000000000000000000000000000000000000000000000000000000000000000000000000000000000000000000000000000000000000000000000000000000000000000000000000000000000000000000000000000000000000000000000000000000000000000000000000000000000000000000000000000000020000000000000000000000000d38522e190cd07dde20b82af41591a275662a0bc0000000000000000000000000000000000000000000000000000000000000020000000000000000000000000e7dbe61c17df192c0b4a61837d4aac9aa4a10ee4",
        "nonce": "0x48",
        "chainId": "0x40d9"
      },
      "additionalContracts": [],
      "isFixedGasLimit": false
    }
  ],
  "receipts": [
    {
      "status": "0x1",
      "cumulativeGasUsed": "0xcc6feb",
      "logs": [
        {
          "address": "0x169ef1a010244c003971cf43de2932547902bf6f",
          "topics": [
            "0x8d340f17e19058004c20453540862a9c62778504476f6756755cb33bcd6c38c2"
          ],
          "data": "0x000000000000000000000000000000000000000000000000de41ba4fc9d91ad900000000000000000000000000000000000000000000000000000000000001000000000000000000000000000000000000000000000000000000000000000000000000000000000000000000000000000000000000000000000000000000000000000000000000000000000000000000000000000000000000000000000000000000000000000000000000000000000000000000000000000000000000000000000000000000000000000000000000000000000000000000000000000000000000000000000000000000000000000000000000000000000000000000000000000000000000000000000000000000000000000000000000000000000000000020000000000000000000000000e7dbe61c17df192c0b4a61837d4aac9aa4a10ee4",
          "blockHash": "0x09a48001d9d9337494c42328e8d8142c786b4135288b9055ab90e6a78edab594",
          "blockNumber": "0x57894b",
          "transactionHash": "0x23dd54d0bce6a4e1274f32f14536cfe62b5fa0aef5a6d367208f963c4fff862b",
          "transactionIndex": "0x3c",
          "logIndex": "0xbd",
          "removed": false
        }
      ],
      "logsBloom": "0x00000000000000400000000000000000000000000000000000000000000000000000000000000000000000000000000000000000000000000004000000000000000000000000000000020000000000000000000000000000000000000000000000000000000000000000000000000000000000000000000000004000000000000000000000000000000000000000000000000000000000000000000000000000000000000000000000000000000000000000000000000000000000000000000000000000000000000000000000000000000000000000000000000000000000000000000000000000000000000000000000000000000000000100000020000000",
      "type": "0x2",
      "transactionHash": "0x23dd54d0bce6a4e1274f32f14536cfe62b5fa0aef5a6d367208f963c4fff862b",
      "transactionIndex": "0x3c",
      "blockHash": "0x09a48001d9d9337494c42328e8d8142c786b4135288b9055ab90e6a78edab594",
      "blockNumber": "0x57894b",
      "gasUsed": "0x40e20",
      "effectiveGasPrice": "0xf425d",
      "from": "0xd81252d06c67a2f3cf3b377d9aae5d827f14f3b1",
      "to": "0x169ef1a010244c003971cf43de2932547902bf6f",
      "contractAddress": null
    }
  ],
  "libraries": [],
  "pending": [],
  "returns": {},
  "timestamp": 1756549126498,
  "chain": 16601,
  "commit": "1ef49ce"
}