{
  "transactions": [
    {
      "hash": "0xb2d6f52350855e2bf4befeb361f994de20b55f487ace6cf6b437f9df5136660b",
      "transactionType": "CALL",
      "contractName": null,
      "contractAddress": "0x5332ba33e26301cdb0d7eb09eb3251481fd2f98d",
      "function": "applyChainUpdates((uint64,bool,bytes,bytes,(bool,uint128,uint128),(bool,uint128,uint128))[])",
      "arguments": [
        "[(16015286601757825753, true, 0x00000000000000000000000024ae0c1e98192d35f40c6f275464bea09bb76cfb, 0x000000000000000000000000819737ed82a73dab192ba69f88febeba17ea0b31, (false, 0, 0), (false, 0, 0))]"
      ],
      "transaction": {
        "from": "0xd81252d06c67a2f3cf3b377d9aae5d827f14f3b1",
        "to": "0x5332ba33e26301cdb0d7eb09eb3251481fd2f98d",
        "gas": "0x511a8",
        "value": "0x0",
        "input": "0xdb6327dc000000000000000000000000000000000000000000000000000000000000002000000000000000000000000000000000000000000000000000000000000000010000000000000000000000000000000000000000000000000000000000000020000000000000000000000000000000000000000000000000de41ba4fc9d91ad9000000000000000000000000000000000000000000000000000000000000000100000000000000000000000000000000000000000000000000000000000001400000000000000000000000000000000000000000000000000000000000000180000000000000000000000000000000000000000000000000000000000000000000000000000000000000000000000000000000000000000000000000000000000000000000000000000000000000000000000000000000000000000000000000000000000000000000000000000000000000000000000000000000000000000000000000000000000000000000000000000000000000000000000000000000000000000000000000000000000000000000000000000000000000000000000000000000000000000000000000000000000000000000000000000000000000002000000000000000000000000024ae0c1e98192d35f40c6f275464bea09bb76cfb0000000000000000000000000000000000000000000000000000000000000020000000000000000000000000819737ed82a73dab192ba69f88febeba17ea0b31",
        "nonce": "0x34",
        "chainId": "0x40d9"
      },
      "additionalContracts": [],
      "isFixedGasLimit": false
    }
  ],
  "receipts": [],
  "libraries": [],
  "pending": [
    "0xb2d6f52350855e2bf4befeb361f994de20b55f487ace6cf6b437f9df5136660b"
  ],
  "returns": {},
  "timestamp": 1756497738848,
  "chain": 16601,
  "commit": "1ef49ce"
}