{
  "transactions": [
    {
      "hash": "0xdb99265039c9eccd72e38267d1b3391204569a3a1e56776ed887ac72269e17b5",
      "transactionType": "CALL",
      "contractName": null,
      "contractAddress": "0x38edf33bd7ad7651a55f92b67cf8a34011dab2b1",
      "function": "applyChainUpdates((uint64,bool,bytes,bytes,(bool,uint128,uint128),(bool,uint128,uint128))[])",
      "arguments": [
        "[(16015286601757825753, true, 0x000000000000000000000000ef261e1d8bdc87babc326fe770c1b658ac2819f1, 0x000000000000000000000000a384f3292a2114e7239b2b429a2425c026416bfb, (false, 0, 0), (false, 0, 0))]"
      ],
      "transaction": {
        "from": "0xd81252d06c67a2f3cf3b377d9aae5d827f14f3b1",
        "to": "0x38edf33bd7ad7651a55f92b67cf8a34011dab2b1",
        "gas": "0x511a8",
        "value": "0x0",
        "input": "0xdb6327dc000000000000000000000000000000000000000000000000000000000000002000000000000000000000000000000000000000000000000000000000000000010000000000000000000000000000000000000000000000000000000000000020000000000000000000000000000000000000000000000000de41ba4fc9d91ad90000000000000000000000000000000000000000000000000000000000000001000000000000000000000000000000000000000000000000000000000000014000000000000000000000000000000000000000000000000000000000000001800000000000000000000000000000000000000000000000000000000000000000000000000000000000000000000000000000000000000000000000000000000000000000000000000000000000000000000000000000000000000000000000000000000000000000000000000000000000000000000000000000000000000000000000000000000000000000000000000000000000000000000000000000000000000000000000000000000000000000000000000000000000000000000000000000000000000000000000000000000000000000000000000000000000000020000000000000000000000000ef261e1d8bdc87babc326fe770c1b658ac2819f10000000000000000000000000000000000000000000000000000000000000020000000000000000000000000a384f3292a2114e7239b2b429a2425c026416bfb",
        "nonce": "0x23",
        "chainId": "0x40d9"
      },
      "additionalContracts": [],
      "isFixedGasLimit": false
    }
  ],
  "receipts": [
    {
      "status": "0x1",
      "cumulativeGasUsed": "0x338c8b",
      "logs": [
        {
          "address": "0x38edf33bd7ad7651a55f92b67cf8a34011dab2b1",
          "topics": [
            "0x8d340f17e19058004c20453540862a9c62778504476f6756755cb33bcd6c38c2"
          ],
          "data": "0x000000000000000000000000000000000000000000000000de41ba4fc9d91ad900000000000000000000000000000000000000000000000000000000000001000000000000000000000000000000000000000000000000000000000000000000000000000000000000000000000000000000000000000000000000000000000000000000000000000000000000000000000000000000000000000000000000000000000000000000000000000000000000000000000000000000000000000000000000000000000000000000000000000000000000000000000000000000000000000000000000000000000000000000000000000000000000000000000000000000000000000000000000000000000000000000000000000000000000000020000000000000000000000000a384f3292a2114e7239b2b429a2425c026416bfb",
          "blockHash": "0xacc091134a0eb39ae1609247f23f097b65799740bff6c6ea3328a3ec0f587070",
          "blockNumber": "0x571740",
          "transactionHash": "0xdb99265039c9eccd72e38267d1b3391204569a3a1e56776ed887ac72269e17b5",
          "transactionIndex": "0x13",
          "logIndex": "0x3c",
          "removed": false
        }
      ],
      "logsBloom": "0x00000000000000400000000000000000000000000000000000000000000000000000000000000000000000000000000000000000000000000004000040000000000000000000000000000000000000000000000000000000000000000000000000000000100000000000000000000000000000000000000000000000000000000000000000000000000000000000000000000000000000000000000000000000000000000000000000000000000000000000000000000000000000000000000000000000000000000000000000000000000000000000000000000000000000000000000000000000000000000000000000000000000000000101000000000000",
      "type": "0x2",
      "transactionHash": "0xdb99265039c9eccd72e38267d1b3391204569a3a1e56776ed887ac72269e17b5",
      "transactionIndex": "0x13",
      "blockHash": "0xacc091134a0eb39ae1609247f23f097b65799740bff6c6ea3328a3ec0f587070",
      "blockNumber": "0x571740",
      "gasUsed": "0x40e20",
      "effectiveGasPrice": "0xf4256",
      "from": "0xd81252d06c67a2f3cf3b377d9aae5d827f14f3b1",
      "to": "0x38edf33bd7ad7651a55f92b67cf8a34011dab2b1",
      "contractAddress": null
    }
  ],
  "libraries": [],
  "pending": [],
  "returns": {},
  "timestamp": 1756494991223,
  "chain": 16601,
  "commit": null
}