{
  "transactions": [
    {
      "hash": "0xc9542d94f86f309496d733a15ba4e8bd6a082971aaf995b5a7d1a55c081abfea",
      "transactionType": "CALL",
      "contractName": null,
      "contractAddress": "0xdc21fd1635ccb5a3e23b6384c8ea9bd30b41fa0c",
      "function": "applyChainUpdates((uint64,bool,bytes,bytes,(bool,uint128,uint128),(bool,uint128,uint128))[])",
      "arguments": [
        "[(16015286601757825753, true, 0x00000000000000000000000046bdbd6cba183b51109e0f03a6fbac216f82240e, 0x000000000000000000000000ba326266ff427cde04a16cf44068ec945803f787, (false, 0, 0), (false, 0, 0))]"
      ],
      "transaction": {
        "from": "0xd81252d06c67a2f3cf3b377d9aae5d827f14f3b1",
        "to": "0xdc21fd1635ccb5a3e23b6384c8ea9bd30b41fa0c",
        "gas": "0x511a8",
        "value": "0x0",
        "input": "0xdb6327dc000000000000000000000000000000000000000000000000000000000000002000000000000000000000000000000000000000000000000000000000000000010000000000000000000000000000000000000000000000000000000000000020000000000000000000000000000000000000000000000000de41ba4fc9d91ad9000000000000000000000000000000000000000000000000000000000000000100000000000000000000000000000000000000000000000000000000000001400000000000000000000000000000000000000000000000000000000000000180000000000000000000000000000000000000000000000000000000000000000000000000000000000000000000000000000000000000000000000000000000000000000000000000000000000000000000000000000000000000000000000000000000000000000000000000000000000000000000000000000000000000000000000000000000000000000000000000000000000000000000000000000000000000000000000000000000000000000000000000000000000000000000000000000000000000000000000000000000000000000000000000000000000000002000000000000000000000000046bdbd6cba183b51109e0f03a6fbac216f82240e0000000000000000000000000000000000000000000000000000000000000020000000000000000000000000ba326266ff427cde04a16cf44068ec945803f787",
        "nonce": "0x7a",
        "chainId": "0x40d9"
      },
      "additionalContracts": [],
      "isFixedGasLimit": false
    }
  ],
  "receipts": [
    {
      "status": "0x1",
      "cumulativeGasUsed": "0x4fc801",
      "logs": [
        {
          "address": "0xdc21fd1635ccb5a3e23b6384c8ea9bd30b41fa0c",
          "topics": [
            "0x8d340f17e19058004c20453540862a9c62778504476f6756755cb33bcd6c38c2"
          ],
          "data": "0x000000000000000000000000000000000000000000000000de41ba4fc9d91ad900000000000000000000000000000000000000000000000000000000000001000000000000000000000000000000000000000000000000000000000000000000000000000000000000000000000000000000000000000000000000000000000000000000000000000000000000000000000000000000000000000000000000000000000000000000000000000000000000000000000000000000000000000000000000000000000000000000000000000000000000000000000000000000000000000000000000000000000000000000000000000000000000000000000000000000000000000000000000000000000000000000000000000000000000000020000000000000000000000000ba326266ff427cde04a16cf44068ec945803f787",
          "blockHash": "0x0ab860d12082cba488d94392f111c291f6be243fd594eb02a7201ee3cfcabe42",
          "blockNumber": "0x5791ff",
          "transactionHash": "0xc9542d94f86f309496d733a15ba4e8bd6a082971aaf995b5a7d1a55c081abfea",
          "transactionIndex": "0x19",
          "logIndex": "0x2b",
          "removed": false
        }
      ],
      "logsBloom": "0x00000000000000400000000000000000000000000000000000000000000000000000000000000000008000000000000000000000000000000004000000000000000000000000000000000000000000000000000000000000000000000000000000000000000000000000000000000000000000000000000000000000000000000000000000000000000000000000000000000000000100000000000000000000000000000000000000000000000000000000000000000000000000000000000000000000000000000000000000000000000000000000000000000000000000000400000000000000000000000000000000000000000000000100000000000000",
      "type": "0x2",
      "transactionHash": "0xc9542d94f86f309496d733a15ba4e8bd6a082971aaf995b5a7d1a55c081abfea",
      "transactionIndex": "0x19",
      "blockHash": "0x0ab860d12082cba488d94392f111c291f6be243fd594eb02a7201ee3cfcabe42",
      "blockNumber": "0x5791ff",
      "gasUsed": "0x40e20",
      "effectiveGasPrice": "0xf4250",
      "from": "0xd81252d06c67a2f3cf3b377d9aae5d827f14f3b1",
      "to": "0xdc21fd1635ccb5a3e23b6384c8ea9bd30b41fa0c",
      "contractAddress": null
    }
  ],
  "libraries": [],
  "pending": [],
  "returns": {},
  "timestamp": 1756553275336,
  "chain": 16601,
  "commit": "1ef49ce"
}