{
  "transactions": [
    {
      "hash": "0x91e7afd71049f167c57887d683fda70b21be5dbb1a2d87b26d25ac3e5179965c",
      "transactionType": "CALL",
      "contractName": null,
      "contractAddress": "0x2432dc3847a04945fd80c0a81b4ebdb7c948d93f",
      "function": "applyChainUpdates((uint64,bool,bytes,bytes,(bool,uint128,uint128),(bool,uint128,uint128))[])",
      "arguments": [
        "[(16015286601757825753, true, 0x0000000000000000000000003081672aa67199fedb357a91c46c9718aca14014, 0x000000000000000000000000135dfad21fcb1463e47ffa434e15cc027f199c6e, (false, 0, 0), (false, 0, 0))]"
      ],
      "transaction": {
        "from": "0xd81252d06c67a2f3cf3b377d9aae5d827f14f3b1",
        "to": "0x2432dc3847a04945fd80c0a81b4ebdb7c948d93f",
        "gas": "0x511a8",
        "value": "0x0",
        "input": "0xdb6327dc000000000000000000000000000000000000000000000000000000000000002000000000000000000000000000000000000000000000000000000000000000010000000000000000000000000000000000000000000000000000000000000020000000000000000000000000000000000000000000000000de41ba4fc9d91ad900000000000000000000000000000000000000000000000000000000000000010000000000000000000000000000000000000000000000000000000000000140000000000000000000000000000000000000000000000000000000000000018000000000000000000000000000000000000000000000000000000000000000000000000000000000000000000000000000000000000000000000000000000000000000000000000000000000000000000000000000000000000000000000000000000000000000000000000000000000000000000000000000000000000000000000000000000000000000000000000000000000000000000000000000000000000000000000000000000000000000000000000000000000000000000000000000000000000000000000000000000000000000000000000000000000000000200000000000000000000000003081672aa67199fedb357a91c46c9718aca140140000000000000000000000000000000000000000000000000000000000000020000000000000000000000000135dfad21fcb1463e47ffa434e15cc027f199c6e",
        "nonce": "0x52",
        "chainId": "0x40d9"
      },
      "additionalContracts": [],
      "isFixedGasLimit": false
    }
  ],
  "receipts": [
    {
      "status": "0x1",
      "cumulativeGasUsed": "0x7e277c",
      "logs": [
        {
          "address": "0x2432dc3847a04945fd80c0a81b4ebdb7c948d93f",
          "topics": [
            "0x8d340f17e19058004c20453540862a9c62778504476f6756755cb33bcd6c38c2"
          ],
          "data": "0x000000000000000000000000000000000000000000000000de41ba4fc9d91ad900000000000000000000000000000000000000000000000000000000000001000000000000000000000000000000000000000000000000000000000000000000000000000000000000000000000000000000000000000000000000000000000000000000000000000000000000000000000000000000000000000000000000000000000000000000000000000000000000000000000000000000000000000000000000000000000000000000000000000000000000000000000000000000000000000000000000000000000000000000000000000000000000000000000000000000000000000000000000000000000000000000000000000000000000000020000000000000000000000000135dfad21fcb1463e47ffa434e15cc027f199c6e",
          "blockHash": "0xa21d5b8c7579c3ad1fac7bf3e1f4998a08e5f911f9343150d0417c667ef52a89",
          "blockNumber": "0x578ab9",
          "transactionHash": "0x91e7afd71049f167c57887d683fda70b21be5dbb1a2d87b26d25ac3e5179965c",
          "transactionIndex": "0x26",
          "logIndex": "0x60",
          "removed": false
        }
      ],
      "logsBloom": "0x00000000000000400000000000000000000000000800000000000000000000000000000000000000000000000000000000000000000000000004000000000000000000000000000000000000000000000000000000000000000000000000100000000000000000000000000000000000000000000000000000000000000000000000000000000000000000000000000000000000000000800000000000000000000000000000000000000000000000000000000000000000000000000000000000000000000000000000000000000000000000000000000000000000000000000000000000000000000000000000000000000000000000000100000000000000",
      "type": "0x2",
      "transactionHash": "0x91e7afd71049f167c57887d683fda70b21be5dbb1a2d87b26d25ac3e5179965c",
      "transactionIndex": "0x26",
      "blockHash": "0xa21d5b8c7579c3ad1fac7bf3e1f4998a08e5f911f9343150d0417c667ef52a89",
      "blockNumber": "0x578ab9",
      "gasUsed": "0x40e20",
      "effectiveGasPrice": "0xf4259",
      "from": "0xd81252d06c67a2f3cf3b377d9aae5d827f14f3b1",
      "to": "0x2432dc3847a04945fd80c0a81b4ebdb7c948d93f",
      "contractAddress": null
    }
  ],
  "libraries": [],
  "pending": [],
  "returns": {},
  "timestamp": 1756549799405,
  "chain": 16601,
  "commit": "1ef49ce"
}