{
  "transactions": [
    {
      "hash": "0x6858f4a49b2c436ccf806c8280a70dabd33baf353a0db78ef798e619fb71d836",
      "transactionType": "CALL",
      "contractName": null,
      "contractAddress": "0x2124069feb60197d6e3b250eb003013bf7439452",
      "function": "applyChainUpdates((uint64,bool,bytes,bytes,(bool,uint128,uint128),(bool,uint128,uint128))[])",
      "arguments": [
        "[(16015286601757825753, true, 0x000000000000000000000000905becd3d42881adae55f522a13da0088820f8c8, 0x0000000000000000000000007317184b1e3faa57db311da40ffad9304717eeb5, (false, 0, 0), (false, 0, 0))]"
      ],
      "transaction": {
        "from": "0xd81252d06c67a2f3cf3b377d9aae5d827f14f3b1",
        "to": "0x2124069feb60197d6e3b250eb003013bf7439452",
        "gas": "0x511a8",
        "value": "0x0",
        "input": "0xdb6327dc000000000000000000000000000000000000000000000000000000000000002000000000000000000000000000000000000000000000000000000000000000010000000000000000000000000000000000000000000000000000000000000020000000000000000000000000000000000000000000000000de41ba4fc9d91ad90000000000000000000000000000000000000000000000000000000000000001000000000000000000000000000000000000000000000000000000000000014000000000000000000000000000000000000000000000000000000000000001800000000000000000000000000000000000000000000000000000000000000000000000000000000000000000000000000000000000000000000000000000000000000000000000000000000000000000000000000000000000000000000000000000000000000000000000000000000000000000000000000000000000000000000000000000000000000000000000000000000000000000000000000000000000000000000000000000000000000000000000000000000000000000000000000000000000000000000000000000000000000000000000000000000000000020000000000000000000000000905becd3d42881adae55f522a13da0088820f8c800000000000000000000000000000000000000000000000000000000000000200000000000000000000000007317184b1e3faa57db311da40ffad9304717eeb5",
        "nonce": "0x84",
        "chainId": "0x40d9"
      },
      "additionalContracts": [],
      "isFixedGasLimit": false
    }
  ],
  "receipts": [
    {
      "status": "0x1",
      "cumulativeGasUsed": "0x7680af",
      "logs": [
        {
          "address": "0x2124069feb60197d6e3b250eb003013bf7439452",
          "topics": [
            "0x8d340f17e19058004c20453540862a9c62778504476f6756755cb33bcd6c38c2"
          ],
          "data": "0x000000000000000000000000000000000000000000000000de41ba4fc9d91ad9000000000000000000000000000000000000000000000000000000000000010000000000000000000000000000000000000000000000000000000000000000000000000000000000000000000000000000000000000000000000000000000000000000000000000000000000000000000000000000000000000000000000000000000000000000000000000000000000000000000000000000000000000000000000000000000000000000000000000000000000000000000000000000000000000000000000000000000000000000000000000000000000000000000000000000000000000000000000000000000000000000000000000000000000000000200000000000000000000000007317184b1e3faa57db311da40ffad9304717eeb5",
          "blockHash": "0xedff27ece189b559b50b04223935fecd94d07cbc3c7bbe8a36f3c525893944e8",
          "blockNumber": "0x579475",
          "transactionHash": "0x6858f4a49b2c436ccf806c8280a70dabd33baf353a0db78ef798e619fb71d836",
          "transactionIndex": "0x23",
          "logIndex": "0x62",
          "removed": false
        }
      ],
      "logsBloom": "0x80000000000000400000000000000000000000000000000000000000000000000000000000000000000000000000000000000000000000000004000000000000000000000000000000000000000000000000000000000000000000000000000000000000000000000000000000000000000000000000000000000000000000000000000000000000000000000000000000000000000000000000000000000000000000000000000000000000000000000000000000000000000000000000000000000000200000000000000000000000000000000000000000000000000000000000000000000000000000000000000000000000000000000100800000000000",
      "type": "0x2",
      "transactionHash": "0x6858f4a49b2c436ccf806c8280a70dabd33baf353a0db78ef798e619fb71d836",
      "transactionIndex": "0x23",
      "blockHash": "0xedff27ece189b559b50b04223935fecd94d07cbc3c7bbe8a36f3c525893944e8",
      "blockNumber": "0x579475",
      "gasUsed": "0x40e20",
      "effectiveGasPrice": "0xf424f",
      "from": "0xd81252d06c67a2f3cf3b377d9aae5d827f14f3b1",
      "to": "0x2124069feb60197d6e3b250eb003013bf7439452",
      "contractAddress": null
    }
  ],
  "libraries": [],
  "pending": [],
  "returns": {},
  "timestamp": 1756554428461,
  "chain": 16601,
  "commit": "1ef49ce"
}