{
  "transactions": [
    {
      "hash": "0x8f719d4c4b84b85f9317047f4c112aa9b4cab2e637affd90a866f69d0b0b54dc",
      "transactionType": "CALL",
      "contractName": null,
      "contractAddress": "0x712281b0530c503f475a7ed0c66e8e7b1539ba7f",
      "function": "applyChainUpdates((uint64,bool,bytes,bytes,(bool,uint128,uint128),(bool,uint128,uint128))[])",
      "arguments": [
        "[(16015286601757825753, true, 0x000000000000000000000000ad92766709d16edd57e6efcd43eb22932fdd40d9, 0x000000000000000000000000242681aec29a653a7d0a3a74ebaf52dff4503b09, (false, 0, 0), (false, 0, 0))]"
      ],
      "transaction": {
        "from": "0xd81252d06c67a2f3cf3b377d9aae5d827f14f3b1",
        "to": "0x712281b0530c503f475a7ed0c66e8e7b1539ba7f",
        "gas": "0x511a8",
        "value": "0x0",
        "input": "0xdb6327dc000000000000000000000000000000000000000000000000000000000000002000000000000000000000000000000000000000000000000000000000000000010000000000000000000000000000000000000000000000000000000000000020000000000000000000000000000000000000000000000000de41ba4fc9d91ad90000000000000000000000000000000000000000000000000000000000000001000000000000000000000000000000000000000000000000000000000000014000000000000000000000000000000000000000000000000000000000000001800000000000000000000000000000000000000000000000000000000000000000000000000000000000000000000000000000000000000000000000000000000000000000000000000000000000000000000000000000000000000000000000000000000000000000000000000000000000000000000000000000000000000000000000000000000000000000000000000000000000000000000000000000000000000000000000000000000000000000000000000000000000000000000000000000000000000000000000000000000000000000000000000000000000000020000000000000000000000000ad92766709d16edd57e6efcd43eb22932fdd40d90000000000000000000000000000000000000000000000000000000000000020000000000000000000000000242681aec29a653a7d0a3a74ebaf52dff4503b09",
        "nonce": "0x70",
        "chainId": "0x40d9"
      },
      "additionalContracts": [],
      "isFixedGasLimit": false
    }
  ],
  "receipts": [
    {
      "status": "0x1",
      "cumulativeGasUsed": "0xe6c7f9",
      "logs": [
        {
          "address": "0x712281b0530c503f475a7ed0c66e8e7b1539ba7f",
          "topics": [
            "0x8d340f17e19058004c20453540862a9c62778504476f6756755cb33bcd6c38c2"
          ],
          "data": "0x000000000000000000000000000000000000000000000000de41ba4fc9d91ad900000000000000000000000000000000000000000000000000000000000001000000000000000000000000000000000000000000000000000000000000000000000000000000000000000000000000000000000000000000000000000000000000000000000000000000000000000000000000000000000000000000000000000000000000000000000000000000000000000000000000000000000000000000000000000000000000000000000000000000000000000000000000000000000000000000000000000000000000000000000000000000000000000000000000000000000000000000000000000000000000000000000000000000000000000020000000000000000000000000242681aec29a653a7d0a3a74ebaf52dff4503b09",
          "blockHash": "0x3d8236441ae0935dcc0795edf592345718d935bbd77563bb2f24abf63bc923f3",
          "blockNumber": "0x578e2c",
          "transactionHash": "0x8f719d4c4b84b85f9317047f4c112aa9b4cab2e637affd90a866f69d0b0b54dc",
          "transactionIndex": "0x27",
          "logIndex": "0x79",
          "removed": false
        }
      ],
      "logsBloom": "0x00000000000000400000000000000000000000000008000000000000000000000000000000000000000000000010000000000000000000000004000000000000000000000000000000000000000000000000000000000000000000000000000000000000000000000000000000000000000000000000000000000000000000000000000000000000000000000000000000000000000000000000000000000000000000000000000000000000000000000000000000000000000000000000000000000000000000000000000000000000000000000000000000000000000000000000000000000000000000000000000000000000000000000100000000000080",
      "type": "0x2",
      "transactionHash": "0x8f719d4c4b84b85f9317047f4c112aa9b4cab2e637affd90a866f69d0b0b54dc",
      "transactionIndex": "0x27",
      "blockHash": "0x3d8236441ae0935dcc0795edf592345718d935bbd77563bb2f24abf63bc923f3",
      "blockNumber": "0x578e2c",
      "gasUsed": "0x40e20",
      "effectiveGasPrice": "0xf4257",
      "from": "0xd81252d06c67a2f3cf3b377d9aae5d827f14f3b1",
      "to": "0x712281b0530c503f475a7ed0c66e8e7b1539ba7f",
      "contractAddress": null
    }
  ],
  "libraries": [],
  "pending": [],
  "returns": {},
  "timestamp": 1756551445632,
  "chain": 16601,
  "commit": "1ef49ce"
}