{
  "transactions": [
    {
      "hash": "0xd9b2099a8e9bb9595d57c8396210d3ac70eec3a011c39e5103dcba8be84dd904",
      "transactionType": "CALL",
      "contractName": null,
      "contractAddress": "0xe8a24313c77da2e8dc52752aae38d081fd4d8e42",
      "function": "applyChainUpdates((uint64,bool,bytes,bytes,(bool,uint128,uint128),(bool,uint128,uint128))[])",
      "arguments": [
        "[(16015286601757825753, true, 0x000000000000000000000000bb8e85c7c2524056e424227479039e89e6d8434f, 0x000000000000000000000000ff891f921659b84bb7d58277ecded9328b1cc019, (false, 0, 0), (false, 0, 0))]"
      ],
      "transaction": {
        "from": "0xd81252d06c67a2f3cf3b377d9aae5d827f14f3b1",
        "to": "0xe8a24313c77da2e8dc52752aae38d081fd4d8e42",
        "gas": "0x511a8",
        "value": "0x0",
        "input": "0xdb6327dc000000000000000000000000000000000000000000000000000000000000002000000000000000000000000000000000000000000000000000000000000000010000000000000000000000000000000000000000000000000000000000000020000000000000000000000000000000000000000000000000de41ba4fc9d91ad90000000000000000000000000000000000000000000000000000000000000001000000000000000000000000000000000000000000000000000000000000014000000000000000000000000000000000000000000000000000000000000001800000000000000000000000000000000000000000000000000000000000000000000000000000000000000000000000000000000000000000000000000000000000000000000000000000000000000000000000000000000000000000000000000000000000000000000000000000000000000000000000000000000000000000000000000000000000000000000000000000000000000000000000000000000000000000000000000000000000000000000000000000000000000000000000000000000000000000000000000000000000000000000000000000000000000020000000000000000000000000bb8e85c7c2524056e424227479039e89e6d8434f0000000000000000000000000000000000000000000000000000000000000020000000000000000000000000ff891f921659b84bb7d58277ecded9328b1cc019",
        "nonce": "0x3e",
        "chainId": "0x40d9"
      },
      "additionalContracts": [],
      "isFixedGasLimit": false
    }
  ],
  "receipts": [
    {
      "status": "0x1",
      "cumulativeGasUsed": "0x988146",
      "logs": [
        {
          "address": "0xe8a24313c77da2e8dc52752aae38d081fd4d8e42",
          "topics": [
            "0x8d340f17e19058004c20453540862a9c62778504476f6756755cb33bcd6c38c2"
          ],
          "data": "0x000000000000000000000000000000000000000000000000de41ba4fc9d91ad900000000000000000000000000000000000000000000000000000000000001000000000000000000000000000000000000000000000000000000000000000000000000000000000000000000000000000000000000000000000000000000000000000000000000000000000000000000000000000000000000000000000000000000000000000000000000000000000000000000000000000000000000000000000000000000000000000000000000000000000000000000000000000000000000000000000000000000000000000000000000000000000000000000000000000000000000000000000000000000000000000000000000000000000000000020000000000000000000000000ff891f921659b84bb7d58277ecded9328b1cc019",
          "blockHash": "0xda039f31bd02cac583500be315f378ee3f55ee7e34fa3b096d405be50ef70c75",
          "blockNumber": "0x57827e",
          "transactionHash": "0xd9b2099a8e9bb9595d57c8396210d3ac70eec3a011c39e5103dcba8be84dd904",
          "transactionIndex": "0x21",
          "logIndex": "0x6d",
          "removed": false
        }
      ],
      "logsBloom": "0x00000000000000408000000000000000000000000000000000000000000000000000000000000000000000000000000000000000000000000004000000000000000000000002000000000000000000000000000000000000000000000000000000000000000000000000004000000000000000000000000000000000000000000000000000000000000000000000000000000000000000000000000000000000000000000000000000000000000000000000000000000000000000000000000000000000000000000000000000000000000000000000000000000000000000000000000000000000000000000000000000000000000000000100000000000000",
      "type": "0x2",
      "transactionHash": "0xd9b2099a8e9bb9595d57c8396210d3ac70eec3a011c39e5103dcba8be84dd904",
      "transactionIndex": "0x21",
      "blockHash": "0xda039f31bd02cac583500be315f378ee3f55ee7e34fa3b096d405be50ef70c75",
      "blockNumber": "0x57827e",
      "gasUsed": "0x40e20",
      "effectiveGasPrice": "0xf4258",
      "from": "0xd81252d06c67a2f3cf3b377d9aae5d827f14f3b1",
      "to": "0xe8a24313c77da2e8dc52752aae38d081fd4d8e42",
      "contractAddress": null
    }
  ],
  "libraries": [],
  "pending": [],
  "returns": {},
  "timestamp": 1756545785597,
  "chain": 16601,
  "commit": "1ef49ce"
}