{
  "transactions": [
    {
      "hash": "0xec73f06f490e14b03239438b3ddd6b8205e74f410f6163a12bf7c9cd002c8195",
      "transactionType": "CALL",
      "contractName": null,
      "contractAddress": "0xd38522e190cd07dde20b82af41591a275662a0bc",
      "function": "applyChainUpdates((uint64,bool,bytes,bytes,(bool,uint128,uint128),(bool,uint128,uint128))[])",
      "arguments": [
        "[(2131427466778448014, true, 0x000000000000000000000000169ef1a010244c003971cf43de2932547902bf6f, 0x000000000000000000000000572e3fa551826cc34a91dab8192285c4bc56dcac, (false, 0, 0), (false, 0, 0))]"
      ],
      "transaction": {
        "from": "0xd81252d06c67a2f3cf3b377d9aae5d827f14f3b1",
        "to": "0xd38522e190cd07dde20b82af41591a275662a0bc",
        "gas": "0x51199",
        "value": "0x0",
        "input": "0xdb6327dc0000000000000000000000000000000000000000000000000000000000000020000000000000000000000000000000000000000000000000000000000000000100000000000000000000000000000000000000000000000000000000000000200000000000000000000000000000000000000000000000001d9459fcfdd7108e0000000000000000000000000000000000000000000000000000000000000001000000000000000000000000000000000000000000000000000000000000014000000000000000000000000000000000000000000000000000000000000001800000000000000000000000000000000000000000000000000000000000000000000000000000000000000000000000000000000000000000000000000000000000000000000000000000000000000000000000000000000000000000000000000000000000000000000000000000000000000000000000000000000000000000000000000000000000000000000000000000000000000000000000000000000000000000000000000000000000000000000000000000000000000000000000000000000000000000000000000000000000000000000000000000000000000020000000000000000000000000169ef1a010244c003971cf43de2932547902bf6f0000000000000000000000000000000000000000000000000000000000000020000000000000000000000000572e3fa551826cc34a91dab8192285c4bc56dcac",
        "nonce": "0xbc",
        "chainId": "0xaa36a7"
      },
      "additionalContracts": [],
      "isFixedGasLimit": false
    }
  ],
  "receipts": [
    {
      "status": "0x1",
      "cumulativeGasUsed": "0x64d00d",
      "logs": [
        {
          "address": "0xd38522e190cd07dde20b82af41591a275662a0bc",
          "topics": [
            "0x8d340f17e19058004c20453540862a9c62778504476f6756755cb33bcd6c38c2"
          ],
          "data": "0x0000000000000000000000000000000000000000000000001d9459fcfdd7108e00000000000000000000000000000000000000000000000000000000000001000000000000000000000000000000000000000000000000000000000000000000000000000000000000000000000000000000000000000000000000000000000000000000000000000000000000000000000000000000000000000000000000000000000000000000000000000000000000000000000000000000000000000000000000000000000000000000000000000000000000000000000000000000000000000000000000000000000000000000000000000000000000000000000000000000000000000000000000000000000000000000000000000000000000000020000000000000000000000000572e3fa551826cc34a91dab8192285c4bc56dcac",
          "blockHash": "0x31b15c4cbcfe03e09d1170306691ac1af9ea4dc934b2cf8858905856544a91fb",
          "blockNumber": "0x8aca16",
          "blockTimestamp": "0x68b2cfc0",
          "transactionHash": "0xec73f06f490e14b03239438b3ddd6b8205e74f410f6163a12bf7c9cd002c8195",
          "transactionIndex": "0x30",
          "logIndex": "0x65",
          "removed": false
        }
      ],
      "logsBloom": "0x00000000000000400000000000000000000000000000000000000000000000000000000000000000000000000000000000000000000000000004000000000000000000000000000000000000000000000000000000000000000000000000000000000000000000000000000000000000000000000000000000000080000000000000000000000000000000100000000000000000000000000000000000000000000000000000000000000000000000000000000000000000000000000000000000000000000000000000000000000000000000000000000000000000000000000000000000000000000000000000000000000000002000000100000000000000",
      "type": "0x2",
      "transactionHash": "0xec73f06f490e14b03239438b3ddd6b8205e74f410f6163a12bf7c9cd002c8195",
      "transactionIndex": "0x30",
      "blockHash": "0x31b15c4cbcfe03e09d1170306691ac1af9ea4dc934b2cf8858905856544a91fb",
      "blockNumber": "0x8aca16",
      "gasUsed": "0x3ab70",
      "effectiveGasPrice": "0x452868",
      "from": "0xd81252d06c67a2f3cf3b377d9aae5d827f14f3b1",
      "to": "0xd38522e190cd07dde20b82af41591a275662a0bc",
      "contractAddress": null
    }
  ],
  "libraries": [],
  "pending": [],
  "returns": {},
  "timestamp": 1756549057776,
  "chain": 11155111,
  "commit": "1ef49ce"
}