{
  "transactions": [
    {
      "hash": "0x01573ba933616ab4df210a912f260e2680ad07ae778b8e6288ea2e421acc14d6",
      "transactionType": "CALL",
      "contractName": null,
      "contractAddress": "0x905becd3d42881adae55f522a13da0088820f8c8",
      "function": "applyChainUpdates((uint64,bool,bytes,bytes,(bool,uint128,uint128),(bool,uint128,uint128))[])",
      "arguments": [
        "[(2131427466778448014, true, 0x0000000000000000000000002124069feb60197d6e3b250eb003013bf7439452, 0x000000000000000000000000451dad465b516e1016bd52f7ed626782b1d10f35, (false, 0, 0), (false, 0, 0))]"
      ],
      "transaction": {
        "from": "0xd81252d06c67a2f3cf3b377d9aae5d827f14f3b1",
        "to": "0x905becd3d42881adae55f522a13da0088820f8c8",
        "gas": "0x511a8",
        "value": "0x0",
        "input": "0xdb6327dc0000000000000000000000000000000000000000000000000000000000000020000000000000000000000000000000000000000000000000000000000000000100000000000000000000000000000000000000000000000000000000000000200000000000000000000000000000000000000000000000001d9459fcfdd7108e00000000000000000000000000000000000000000000000000000000000000010000000000000000000000000000000000000000000000000000000000000140000000000000000000000000000000000000000000000000000000000000018000000000000000000000000000000000000000000000000000000000000000000000000000000000000000000000000000000000000000000000000000000000000000000000000000000000000000000000000000000000000000000000000000000000000000000000000000000000000000000000000000000000000000000000000000000000000000000000000000000000000000000000000000000000000000000000000000000000000000000000000000000000000000000000000000000000000000000000000000000000000000000000000000000000000000200000000000000000000000002124069feb60197d6e3b250eb003013bf74394520000000000000000000000000000000000000000000000000000000000000020000000000000000000000000451dad465b516e1016bd52f7ed626782b1d10f35",
        "nonce": "0xe6",
        "chainId": "0xaa36a7"
      },
      "additionalContracts": [],
      "isFixedGasLimit": false
    }
  ],
  "receipts": [
    {
      "status": "0x1",
      "cumulativeGasUsed": "0x31ade61",
      "logs": [
        {
          "address": "0x905becd3d42881adae55f522a13da0088820f8c8",
          "topics": [
            "0x8d340f17e19058004c20453540862a9c62778504476f6756755cb33bcd6c38c2"
          ],
          "data": "0x0000000000000000000000000000000000000000000000001d9459fcfdd7108e00000000000000000000000000000000000000000000000000000000000001000000000000000000000000000000000000000000000000000000000000000000000000000000000000000000000000000000000000000000000000000000000000000000000000000000000000000000000000000000000000000000000000000000000000000000000000000000000000000000000000000000000000000000000000000000000000000000000000000000000000000000000000000000000000000000000000000000000000000000000000000000000000000000000000000000000000000000000000000000000000000000000000000000000000000020000000000000000000000000451dad465b516e1016bd52f7ed626782b1d10f35",
          "blockHash": "0xeeba78c66b4af8f6c932d844290aa6653a15a9c3104c5868f0e235e0f04cf3a5",
          "blockNumber": "0x8acbce",
          "blockTimestamp": "0x68b2e478",
          "transactionHash": "0x01573ba933616ab4df210a912f260e2680ad07ae778b8e6288ea2e421acc14d6",
          "transactionIndex": "0x51",
          "logIndex": "0x23cc",
          "removed": false
        }
      ],
      "logsBloom": "0x00000000000000400000000000000000000100000000000000000000000000000000000000000000000000000000000000000000000000000004000000000000000000000000000000000000000000000000000000002000000000000000000000000000000000000000000000000000000000000000000040000000000000000000000000000000000000000000000000000000000000000000000000000000000000000000000000000000000000000000000000000000000000000000000000000000000000000000000000000000000000000000000000000000000000000000000000000000000000000000000000000000000000000100000000000000",
      "type": "0x2",
      "transactionHash": "0x01573ba933616ab4df210a912f260e2680ad07ae778b8e6288ea2e421acc14d6",
      "transactionIndex": "0x51",
      "blockHash": "0xeeba78c66b4af8f6c932d844290aa6653a15a9c3104c5868f0e235e0f04cf3a5",
      "blockNumber": "0x8acbce",
      "gasUsed": "0x3ab7c",
      "effectiveGasPrice": "0x2f800f",
      "from": "0xd81252d06c67a2f3cf3b377d9aae5d827f14f3b1",
      "to": "0x905becd3d42881adae55f522a13da0088820f8c8",
      "contractAddress": null
    }
  ],
  "libraries": [],
  "pending": [],
  "returns": {},
  "timestamp": 1756554361791,
  "chain": 11155111,
  "commit": "1ef49ce"
}