{
  "transactions": [
    {
      "hash": "0x26b9eea0fd354ee8157bcf09c7e5492bab9a2acf67e284b5893136ef9f86f520",
      "transactionType": "CALL",
      "contractName": null,
      "contractAddress": "0xbb8e85c7c2524056e424227479039e89e6d8434f",
      "function": "applyChainUpdates((uint64,bool,bytes,bytes,(bool,uint128,uint128),(bool,uint128,uint128))[])",
      "arguments": [
        "[(2131427466778448014, true, 0x000000000000000000000000e8a24313c77da2e8dc52752aae38d081fd4d8e42, 0x00000000000000000000000041eebcb456e8de17034d783b3d15b70d26bb5671, (false, 0, 0), (false, 0, 0))]"
      ],
      "transaction": {
        "from": "0xd81252d06c67a2f3cf3b377d9aae5d827f14f3b1",
        "to": "0xbb8e85c7c2524056e424227479039e89e6d8434f",
        "gas": "0x511a8",
        "value": "0x0",
        "input": "0xdb6327dc0000000000000000000000000000000000000000000000000000000000000020000000000000000000000000000000000000000000000000000000000000000100000000000000000000000000000000000000000000000000000000000000200000000000000000000000000000000000000000000000001d9459fcfdd7108e0000000000000000000000000000000000000000000000000000000000000001000000000000000000000000000000000000000000000000000000000000014000000000000000000000000000000000000000000000000000000000000001800000000000000000000000000000000000000000000000000000000000000000000000000000000000000000000000000000000000000000000000000000000000000000000000000000000000000000000000000000000000000000000000000000000000000000000000000000000000000000000000000000000000000000000000000000000000000000000000000000000000000000000000000000000000000000000000000000000000000000000000000000000000000000000000000000000000000000000000000000000000000000000000000000000000000020000000000000000000000000e8a24313c77da2e8dc52752aae38d081fd4d8e42000000000000000000000000000000000000000000000000000000000000002000000000000000000000000041eebcb456e8de17034d783b3d15b70d26bb5671",
        "nonce": "0xb5",
        "chainId": "0xaa36a7"
      },
      "additionalContracts": [],
      "isFixedGasLimit": false
    }
  ],
  "receipts": [
    {
      "status": "0x1",
      "cumulativeGasUsed": "0xf6f510",
      "logs": [
        {
          "address": "0xbb8e85c7c2524056e424227479039e89e6d8434f",
          "topics": [
            "0x8d340f17e19058004c20453540862a9c62778504476f6756755cb33bcd6c38c2"
          ],
          "data": "0x0000000000000000000000000000000000000000000000001d9459fcfdd7108e0000000000000000000000000000000000000000000000000000000000000100000000000000000000000000000000000000000000000000000000000000000000000000000000000000000000000000000000000000000000000000000000000000000000000000000000000000000000000000000000000000000000000000000000000000000000000000000000000000000000000000000000000000000000000000000000000000000000000000000000000000000000000000000000000000000000000000000000000000000000000000000000000000000000000000000000000000000000000000000000000000000000000000000000000000002000000000000000000000000041eebcb456e8de17034d783b3d15b70d26bb5671",
          "blockHash": "0xf616ecfd1144f3b1752eb093e298aa3e5ad696571db2131cc1eb43079134a24b",
          "blockNumber": "0x8ac903",
          "blockTimestamp": "0x68b2c2b8",
          "transactionHash": "0x26b9eea0fd354ee8157bcf09c7e5492bab9a2acf67e284b5893136ef9f86f520",
          "transactionIndex": "0x6d",
          "logIndex": "0xc5",
          "removed": false
        }
      ],
      "logsBloom": "0x00000000000000400000000000000000000000000000000000000000000000000000000000000000000000000000000000000000000000000004000000000000000000000000000000000000000000000000000000000000000000000000000000000000000000000000000000000000000000000000000000020000000000000000000000000000000000000000000000000000000000000000000000000000000000000000000000000000000000000000000000000000000000000000000000000000000000000000000000000000000000000000000000000000000000000000000000000000000000000000000000000020000000000100000002000000",
      "type": "0x2",
      "transactionHash": "0x26b9eea0fd354ee8157bcf09c7e5492bab9a2acf67e284b5893136ef9f86f520",
      "transactionIndex": "0x6d",
      "blockHash": "0xf616ecfd1144f3b1752eb093e298aa3e5ad696571db2131cc1eb43079134a24b",
      "blockNumber": "0x8ac903",
      "gasUsed": "0x3ab7c",
      "effectiveGasPrice": "0x3a4434",
      "from": "0xd81252d06c67a2f3cf3b377d9aae5d827f14f3b1",
      "to": "0xbb8e85c7c2524056e424227479039e89e6d8434f",
      "contractAddress": null
    }
  ],
  "libraries": [],
  "pending": [],
  "returns": {},
  "timestamp": 1756545724465,
  "chain": 11155111,
  "commit": "1ef49ce"
}