{
  "transactions": [
    {
      "hash": "0x1117795f17a392dbdb46b5be8e495e414143508f710c4c5ed5085afdea8f1bc5",
      "transactionType": "CALL",
      "contractName": null,
      "contractAddress": "0x24ae0c1e98192d35f40c6f275464bea09bb76cfb",
      "function": "applyChainUpdates((uint64,bool,bytes,bytes,(bool,uint128,uint128),(bool,uint128,uint128))[])",
      "arguments": [
        "[(2131427466778448014, true, 0x0000000000000000000000005332ba33e26301cdb0d7eb09eb3251481fd2f98d, 0x0000000000000000000000004570f4f1deca8d24ee2448a07f7e49ddddee5729, (false, 0, 0), (false, 0, 0))]"
      ],
      "transaction": {
        "from": "0xd81252d06c67a2f3cf3b377d9aae5d827f14f3b1",
        "to": "0x24ae0c1e98192d35f40c6f275464bea09bb76cfb",
        "gas": "0x511a8",
        "value": "0x0",
        "input": "0xdb6327dc0000000000000000000000000000000000000000000000000000000000000020000000000000000000000000000000000000000000000000000000000000000100000000000000000000000000000000000000000000000000000000000000200000000000000000000000000000000000000000000000001d9459fcfdd7108e00000000000000000000000000000000000000000000000000000000000000010000000000000000000000000000000000000000000000000000000000000140000000000000000000000000000000000000000000000000000000000000018000000000000000000000000000000000000000000000000000000000000000000000000000000000000000000000000000000000000000000000000000000000000000000000000000000000000000000000000000000000000000000000000000000000000000000000000000000000000000000000000000000000000000000000000000000000000000000000000000000000000000000000000000000000000000000000000000000000000000000000000000000000000000000000000000000000000000000000000000000000000000000000000000000000000000200000000000000000000000005332ba33e26301cdb0d7eb09eb3251481fd2f98d00000000000000000000000000000000000000000000000000000000000000200000000000000000000000004570f4f1deca8d24ee2448a07f7e49ddddee5729",
        "nonce": "0xae",
        "chainId": "0xaa36a7"
      },
      "additionalContracts": [],
      "isFixedGasLimit": false
    }
  ],
  "receipts": [
    {
      "status": "0x1",
      "cumulativeGasUsed": "0xaed0ac",
      "logs": [
        {
          "address": "0x24ae0c1e98192d35f40c6f275464bea09bb76cfb",
          "topics": [
            "0x8d340f17e19058004c20453540862a9c62778504476f6756755cb33bcd6c38c2"
          ],
          "data": "0x0000000000000000000000000000000000000000000000001d9459fcfdd7108e000000000000000000000000000000000000000000000000000000000000010000000000000000000000000000000000000000000000000000000000000000000000000000000000000000000000000000000000000000000000000000000000000000000000000000000000000000000000000000000000000000000000000000000000000000000000000000000000000000000000000000000000000000000000000000000000000000000000000000000000000000000000000000000000000000000000000000000000000000000000000000000000000000000000000000000000000000000000000000000000000000000000000000000000000000200000000000000000000000004570f4f1deca8d24ee2448a07f7e49ddddee5729",
          "blockHash": "0xfc3a008e01c262c559f73ed733c7da13c4062593b3c7d3e34b97ce1ce47d3176",
          "blockNumber": "0x8ab984",
          "blockTimestamp": "0x68b2072c",
          "transactionHash": "0x1117795f17a392dbdb46b5be8e495e414143508f710c4c5ed5085afdea8f1bc5",
          "transactionIndex": "0x56",
          "logIndex": "0x6f",
          "removed": false
        }
      ],
      "logsBloom": "0x02000000000000400000000000000000000000000000002000000000000000000000000000000000000000000000000000000000000000000004000000000000000000000000000000000000000000000000000000000000000000000000000000000000000000000000000000000000000000000000000000000000000000000000000000000000000000000000000000000000000000000000000000000000000000000000000000000000000000000000000000000000000000000000000000000000000000008000000000000000000000000000000000000000000000000000000000000000000000000000000000000000000000000100000000000000",
      "type": "0x2",
      "transactionHash": "0x1117795f17a392dbdb46b5be8e495e414143508f710c4c5ed5085afdea8f1bc5",
      "transactionIndex": "0x56",
      "blockHash": "0xfc3a008e01c262c559f73ed733c7da13c4062593b3c7d3e34b97ce1ce47d3176",
      "blockNumber": "0x8ab984",
      "gasUsed": "0x3ab7c",
      "effectiveGasPrice": "0x11ab27",
      "from": "0xd81252d06c67a2f3cf3b377d9aae5d827f14f3b1",
      "to": "0x24ae0c1e98192d35f40c6f275464bea09bb76cfb",
      "contractAddress": null
    }
  ],
  "libraries": [],
  "pending": [],
  "returns": {},
  "timestamp": 1756497710074,
  "chain": 11155111,
  "commit": "1ef49ce"
}