{
  "transactions": [
    {
      "hash": "0x807c9c67e3e6bed061add9c3ebc39f5802d60dcb90ac96494066fe8802ce50c5",
      "transactionType": "CALL",
      "contractName": null,
      "contractAddress": "0x8dd3fd4db26bf1785f14fbb7e9208c9aafcc77bb",
      "function": "applyChainUpdates((uint64,bool,bytes,bytes,(bool,uint128,uint128),(bool,uint128,uint128))[])",
      "arguments": [
        "[(2131427466778448014, true, 0x000000000000000000000000a82e1dd2ead50fb919c277cb34e9db8859663207, 0x000000000000000000000000d53a9d638c1e8535ad9eedfae5abb2098a3ab2c3, (false, 0, 0), (false, 0, 0))]"
      ],
      "transaction": {
        "from": "0xd81252d06c67a2f3cf3b377d9aae5d827f14f3b1",
        "to": "0x8dd3fd4db26bf1785f14fbb7e9208c9aafcc77bb",
        "gas": "0x511a8",
        "value": "0x0",
        "input": "0xdb6327dc0000000000000000000000000000000000000000000000000000000000000020000000000000000000000000000000000000000000000000000000000000000100000000000000000000000000000000000000000000000000000000000000200000000000000000000000000000000000000000000000001d9459fcfdd7108e0000000000000000000000000000000000000000000000000000000000000001000000000000000000000000000000000000000000000000000000000000014000000000000000000000000000000000000000000000000000000000000001800000000000000000000000000000000000000000000000000000000000000000000000000000000000000000000000000000000000000000000000000000000000000000000000000000000000000000000000000000000000000000000000000000000000000000000000000000000000000000000000000000000000000000000000000000000000000000000000000000000000000000000000000000000000000000000000000000000000000000000000000000000000000000000000000000000000000000000000000000000000000000000000000000000000000020000000000000000000000000a82e1dd2ead50fb919c277cb34e9db88596632070000000000000000000000000000000000000000000000000000000000000020000000000000000000000000d53a9d638c1e8535ad9eedfae5abb2098a3ab2c3",
        "nonce": "0xa3",
        "chainId": "0xaa36a7"
      },
      "additionalContracts": [],
      "isFixedGasLimit": false
    }
  ],
  "receipts": [
    {
      "status": "0x1",
      "cumulativeGasUsed": "0x9216ca",
      "logs": [
        {
          "address": "0x8dd3fd4db26bf1785f14fbb7e9208c9aafcc77bb",
          "topics": [
            "0x8d340f17e19058004c20453540862a9c62778504476f6756755cb33bcd6c38c2"
          ],
          "data": "0x0000000000000000000000000000000000000000000000001d9459fcfdd7108e00000000000000000000000000000000000000000000000000000000000001000000000000000000000000000000000000000000000000000000000000000000000000000000000000000000000000000000000000000000000000000000000000000000000000000000000000000000000000000000000000000000000000000000000000000000000000000000000000000000000000000000000000000000000000000000000000000000000000000000000000000000000000000000000000000000000000000000000000000000000000000000000000000000000000000000000000000000000000000000000000000000000000000000000000000020000000000000000000000000d53a9d638c1e8535ad9eedfae5abb2098a3ab2c3",
          "blockHash": "0x43d0cd956b4346963b8c2f1b05ea299735c0eb87613a81a9f9154e5c1bf61faa",
          "blockNumber": "0x8ab92e",
          "blockTimestamp": "0x68b20324",
          "transactionHash": "0x807c9c67e3e6bed061add9c3ebc39f5802d60dcb90ac96494066fe8802ce50c5",
          "transactionIndex": "0x58",
          "logIndex": "0x85",
          "removed": false
        }
      ],
      "logsBloom": "0x00000000000000400000000000000000000000000000000000000000000000000000000000000000000000000000000000000000000000000004000000000000000000000000000000000000000400000000000000000000000000000000000000000000000000000000000000000000000000000000000000000000000000000000000000000000000000000000000000000000000000000000000000000000000000000000000000000000000000000000000000000000000040000000000000000000001000000000000000000000000000000000000000000000000000000000000000000000000000000000000000000000000000000100000000000000",
      "type": "0x2",
      "transactionHash": "0x807c9c67e3e6bed061add9c3ebc39f5802d60dcb90ac96494066fe8802ce50c5",
      "transactionIndex": "0x58",
      "blockHash": "0x43d0cd956b4346963b8c2f1b05ea299735c0eb87613a81a9f9154e5c1bf61faa",
      "blockNumber": "0x8ab92e",
      "gasUsed": "0x3ab7c",
      "effectiveGasPrice": "0x132b3d",
      "from": "0xd81252d06c67a2f3cf3b377d9aae5d827f14f3b1",
      "to": "0x8dd3fd4db26bf1785f14fbb7e9208c9aafcc77bb",
      "contractAddress": null
    }
  ],
  "libraries": [],
  "pending": [],
  "returns": {},
  "timestamp": 1756496677441,
  "chain": 11155111,
  "commit": null
}