{
  "transactions": [
    {
      "hash": "0xae090fa365aadc1bdcd6fbe82698dd563cd3ef39ca108dd4372a48e31bf1fbe7",
      "transactionType": "CALL",
      "contractName": null,
      "contractAddress": "0x7adc26608fb7d43eac0ad3a6583ab2733c6ff1db",
      "function": "applyChainUpdates((uint64,bool,bytes,bytes,(bool,uint128,uint128),(bool,uint128,uint128))[])",
      "arguments": [
        "[(2131427466778448014, true, 0x000000000000000000000000e8a50dc2717781200752454d96814929c2ff3107, 0x000000000000000000000000f6c7bf63a9e8c33a16e35783cdb4984f86e55602, (false, 0, 0), (false, 0, 0))]"
      ],
      "transaction": {
        "from": "0xd81252d06c67a2f3cf3b377d9aae5d827f14f3b1",
        "to": "0x7adc26608fb7d43eac0ad3a6583ab2733c6ff1db",
        "gas": "0x511a8",
        "value": "0x0",
        "input": "0xdb6327dc0000000000000000000000000000000000000000000000000000000000000020000000000000000000000000000000000000000000000000000000000000000100000000000000000000000000000000000000000000000000000000000000200000000000000000000000000000000000000000000000001d9459fcfdd7108e0000000000000000000000000000000000000000000000000000000000000001000000000000000000000000000000000000000000000000000000000000014000000000000000000000000000000000000000000000000000000000000001800000000000000000000000000000000000000000000000000000000000000000000000000000000000000000000000000000000000000000000000000000000000000000000000000000000000000000000000000000000000000000000000000000000000000000000000000000000000000000000000000000000000000000000000000000000000000000000000000000000000000000000000000000000000000000000000000000000000000000000000000000000000000000000000000000000000000000000000000000000000000000000000000000000000000020000000000000000000000000e8a50dc2717781200752454d96814929c2ff31070000000000000000000000000000000000000000000000000000000000000020000000000000000000000000f6c7bf63a9e8c33a16e35783cdb4984f86e55602",
        "nonce": "0xca",
        "chainId": "0xaa36a7"
      },
      "additionalContracts": [],
      "isFixedGasLimit": false
    }
  ],
  "receipts": [
    {
      "status": "0x1",
      "cumulativeGasUsed": "0xae7503",
      "logs": [
        {
          "address": "0x7adc26608fb7d43eac0ad3a6583ab2733c6ff1db",
          "topics": [
            "0x8d340f17e19058004c20453540862a9c62778504476f6756755cb33bcd6c38c2"
          ],
          "data": "0x0000000000000000000000000000000000000000000000001d9459fcfdd7108e00000000000000000000000000000000000000000000000000000000000001000000000000000000000000000000000000000000000000000000000000000000000000000000000000000000000000000000000000000000000000000000000000000000000000000000000000000000000000000000000000000000000000000000000000000000000000000000000000000000000000000000000000000000000000000000000000000000000000000000000000000000000000000000000000000000000000000000000000000000000000000000000000000000000000000000000000000000000000000000000000000000000000000000000000000020000000000000000000000000f6c7bf63a9e8c33a16e35783cdb4984f86e55602",
          "blockHash": "0xd567cbf882bbb4e510ce48b277a174a39a07c8fe46f93842debe293c4378fe7b",
          "blockNumber": "0x8aca79",
          "blockTimestamp": "0x68b2d464",
          "transactionHash": "0xae090fa365aadc1bdcd6fbe82698dd563cd3ef39ca108dd4372a48e31bf1fbe7",
          "transactionIndex": "0x57",
          "logIndex": "0xa2",
          "removed": false
        }
      ],
      "logsBloom": "0x00000000000000400000000000000000000000000000000000000000000000000000000000000000000000000000000000000000000000000004000000000040000000000000000000000000000000000000000000000000000000000000000000000000000000000000000000000000000000000000000000000000000000000000000000000000000000000000000000000040000000000000000000000000000000000000000000000000000000000000000000000000000000000000000000000000000000000000000000000000000000000000000000000000000000000000000020000000000000000000000000000000000000000100000000000000",
      "type": "0x2",
      "transactionHash": "0xae090fa365aadc1bdcd6fbe82698dd563cd3ef39ca108dd4372a48e31bf1fbe7",
      "transactionIndex": "0x57",
      "blockHash": "0xd567cbf882bbb4e510ce48b277a174a39a07c8fe46f93842debe293c4378fe7b",
      "blockNumber": "0x8aca79",
      "gasUsed": "0x3ab7c",
      "effectiveGasPrice": "0x324090",
      "from": "0xd81252d06c67a2f3cf3b377d9aae5d827f14f3b1",
      "to": "0x7adc26608fb7d43eac0ad3a6583ab2733c6ff1db",
      "contractAddress": null
    }
  ],
  "libraries": [],
  "pending": [],
  "returns": {},
  "timestamp": 1756550246029,
  "chain": 11155111,
  "commit": "1ef49ce"
}