{
  "transactions": [
    {
      "hash": "0x30b2bc605b880b5fee4f4831847e14e5714c60778ccf68f051bd671e30c6b205",
      "transactionType": "CALL",
      "contractName": null,
      "contractAddress": "0xad92766709d16edd57e6efcd43eb22932fdd40d9",
      "function": "applyChainUpdates((uint64,bool,bytes,bytes,(bool,uint128,uint128),(bool,uint128,uint128))[])",
      "arguments": [
        "[(2131427466778448014, true, 0x000000000000000000000000712281b0530c503f475a7ed0c66e8e7b1539ba7f, 0x00000000000000000000000052e5428d1c5a819bf07268b23fadd3756f64ae21, (false, 0, 0), (false, 0, 0))]"
      ],
      "transaction": {
        "from": "0xd81252d06c67a2f3cf3b377d9aae5d827f14f3b1",
        "to": "0xad92766709d16edd57e6efcd43eb22932fdd40d9",
        "gas": "0x511a8",
        "value": "0x0",
        "input": "0xdb6327dc0000000000000000000000000000000000000000000000000000000000000020000000000000000000000000000000000000000000000000000000000000000100000000000000000000000000000000000000000000000000000000000000200000000000000000000000000000000000000000000000001d9459fcfdd7108e0000000000000000000000000000000000000000000000000000000000000001000000000000000000000000000000000000000000000000000000000000014000000000000000000000000000000000000000000000000000000000000001800000000000000000000000000000000000000000000000000000000000000000000000000000000000000000000000000000000000000000000000000000000000000000000000000000000000000000000000000000000000000000000000000000000000000000000000000000000000000000000000000000000000000000000000000000000000000000000000000000000000000000000000000000000000000000000000000000000000000000000000000000000000000000000000000000000000000000000000000000000000000000000000000000000000000020000000000000000000000000712281b0530c503f475a7ed0c66e8e7b1539ba7f000000000000000000000000000000000000000000000000000000000000002000000000000000000000000052e5428d1c5a819bf07268b23fadd3756f64ae21",
        "nonce": "0xd8",
        "chainId": "0xaa36a7"
      },
      "additionalContracts": [],
      "isFixedGasLimit": false
    }
  ],
  "receipts": [
    {
      "status": "0x1",
      "cumulativeGasUsed": "0x166490b",
      "logs": [
        {
          "address": "0xad92766709d16edd57e6efcd43eb22932fdd40d9",
          "topics": [
            "0x8d340f17e19058004c20453540862a9c62778504476f6756755cb33bcd6c38c2"
          ],
          "data": "0x0000000000000000000000000000000000000000000000001d9459fcfdd7108e0000000000000000000000000000000000000000000000000000000000000100000000000000000000000000000000000000000000000000000000000000000000000000000000000000000000000000000000000000000000000000000000000000000000000000000000000000000000000000000000000000000000000000000000000000000000000000000000000000000000000000000000000000000000000000000000000000000000000000000000000000000000000000000000000000000000000000000000000000000000000000000000000000000000000000000000000000000000000000000000000000000000000000000000000000002000000000000000000000000052e5428d1c5a819bf07268b23fadd3756f64ae21",
          "blockHash": "0xb67f3bd6f5be032fa16de2456cf9cebcc709b87c1f30ba7c1380c01dc4e7c62f",
          "blockNumber": "0x8acada",
          "blockTimestamp": "0x68b2d8f0",
          "transactionHash": "0x30b2bc605b880b5fee4f4831847e14e5714c60778ccf68f051bd671e30c6b205",
          "transactionIndex": "0x80",
          "logIndex": "0xb5",
          "removed": false
        }
      ],
      "logsBloom": "0x00000000000000400000000000000000000000000000000004000000000000000000000000000000000000000000000000020000000000000004000000000000000000000000000000000000000000000000000000000000000000000000000000000000000000000000000000000000000000000000000000000000000000008000000000000000000000000000000000000000000000000000000000000000000000000000000000000000000000000000000000000000000000000000000000000000000000000000000000000000000000000000000000000000000000000000000000000000000000000000000000000000000000000100000000000000",
      "type": "0x2",
      "transactionHash": "0x30b2bc605b880b5fee4f4831847e14e5714c60778ccf68f051bd671e30c6b205",
      "transactionIndex": "0x80",
      "blockHash": "0xb67f3bd6f5be032fa16de2456cf9cebcc709b87c1f30ba7c1380c01dc4e7c62f",
      "blockNumber": "0x8acada",
      "gasUsed": "0x3ab7c",
      "effectiveGasPrice": "0x466678",
      "from": "0xd81252d06c67a2f3cf3b377d9aae5d827f14f3b1",
      "to": "0xad92766709d16edd57e6efcd43eb22932fdd40d9",
      "contractAddress": null
    }
  ],
  "libraries": [],
  "pending": [],
  "returns": {},
  "timestamp": 1756551410524,
  "chain": 11155111,
  "commit": "1ef49ce"
}