{
  "transactions": [
    {
      "hash": "0xc1a99c09fb9d659b4ed4c6348463f70a01c6168611df22dd3254baa1e2ba557b",
      "transactionType": "CALL",
      "contractName": null,
      "contractAddress": "0x3346f2cc72d108f53794aa81f1ff840fbd6008f5",
      "function": "applyChainUpdates((uint64,bool,bytes,bytes,(bool,uint128,uint128),(bool,uint128,uint128))[])",
      "arguments": [
        "[(2131427466778448014, true, 0x000000000000000000000000bd7b3646eabd58d1d622469b97fd0b6cac591d64, 0x000000000000000000000000eb093bfb8a1d9ef7a714b36dd61c63d2832194ba, (false, 0, 0), (false, 0, 0))]"
      ],
      "transaction": {
        "from": "0xd81252d06c67a2f3cf3b377d9aae5d827f14f3b1",
        "to": "0x3346f2cc72d108f53794aa81f1ff840fbd6008f5",
        "gas": "0x511a8",
        "value": "0x0",
        "input": "0xdb6327dc0000000000000000000000000000000000000000000000000000000000000020000000000000000000000000000000000000000000000000000000000000000100000000000000000000000000000000000000000000000000000000000000200000000000000000000000000000000000000000000000001d9459fcfdd7108e0000000000000000000000000000000000000000000000000000000000000001000000000000000000000000000000000000000000000000000000000000014000000000000000000000000000000000000000000000000000000000000001800000000000000000000000000000000000000000000000000000000000000000000000000000000000000000000000000000000000000000000000000000000000000000000000000000000000000000000000000000000000000000000000000000000000000000000000000000000000000000000000000000000000000000000000000000000000000000000000000000000000000000000000000000000000000000000000000000000000000000000000000000000000000000000000000000000000000000000000000000000000000000000000000000000000000020000000000000000000000000bd7b3646eabd58d1d622469b97fd0b6cac591d640000000000000000000000000000000000000000000000000000000000000020000000000000000000000000eb093bfb8a1d9ef7a714b36dd61c63d2832194ba",
        "nonce": "0xed",
        "chainId": "0xaa36a7"
      },
      "additionalContracts": [],
      "isFixedGasLimit": false
    }
  ],
  "receipts": [
    {
      "status": "0x1",
      "cumulativeGasUsed": "0x19b0c94",
      "logs": [
        {
          "address": "0x3346f2cc72d108f53794aa81f1ff840fbd6008f5",
          "topics": [
            "0x8d340f17e19058004c20453540862a9c62778504476f6756755cb33bcd6c38c2"
          ],
          "data": "0x0000000000000000000000000000000000000000000000001d9459fcfdd7108e00000000000000000000000000000000000000000000000000000000000001000000000000000000000000000000000000000000000000000000000000000000000000000000000000000000000000000000000000000000000000000000000000000000000000000000000000000000000000000000000000000000000000000000000000000000000000000000000000000000000000000000000000000000000000000000000000000000000000000000000000000000000000000000000000000000000000000000000000000000000000000000000000000000000000000000000000000000000000000000000000000000000000000000000000000020000000000000000000000000eb093bfb8a1d9ef7a714b36dd61c63d2832194ba",
          "blockHash": "0x69730ece0da4ce0bb67c7071a57d981880a8f96c82f454e2b48269404ecefde1",
          "blockNumber": "0x8acbfd",
          "blockTimestamp": "0x68b2e6ac",
          "transactionHash": "0xc1a99c09fb9d659b4ed4c6348463f70a01c6168611df22dd3254baa1e2ba557b",
          "transactionIndex": "0x7d",
          "logIndex": "0xd7",
          "removed": false
        }
      ],
      "logsBloom": "0x00000000000000400000000000000000000000000000200000000000000000000000000000000000000000000000000000000000000000000004010000000000000000000000000000000000000000000000000000000000000000000000000000000000000000000000000000000000000000000000000000000000000000000000000000000000000000000000000000000000000000000000000000000000001000000000000000000000000000000000000000000000000000000000000000000000000000000000000000000000000000000000000000000000000000000000000000000000000000000000000000000000000000000100000000000000",
      "type": "0x2",
      "transactionHash": "0xc1a99c09fb9d659b4ed4c6348463f70a01c6168611df22dd3254baa1e2ba557b",
      "transactionIndex": "0x7d",
      "blockHash": "0x69730ece0da4ce0bb67c7071a57d981880a8f96c82f454e2b48269404ecefde1",
      "blockNumber": "0x8acbfd",
      "gasUsed": "0x3ab7c",
      "effectiveGasPrice": "0x48785d",
      "from": "0xd81252d06c67a2f3cf3b377d9aae5d827f14f3b1",
      "to": "0x3346f2cc72d108f53794aa81f1ff840fbd6008f5",
      "contractAddress": null
    }
  ],
  "libraries": [],
  "pending": [],
  "returns": {},
  "timestamp": 1756554927253,
  "chain": 11155111,
  "commit": "1ef49ce"
}