{
  "transactions": [
    {
      "hash": "0x035ef4995d67f24e33ca1308a8279078006c3148b4e378afe45baba369afa806",
      "transactionType": "CALL",
      "contractName": null,
      "contractAddress": "0x70981620e5405acc1510645f39f1984a4fc2f4ac",
      "function": "applyChainUpdates((uint64,bool,bytes,bytes,(bool,uint128,uint128),(bool,uint128,uint128))[])",
      "arguments": [
        "[(2131427466778448014, true, 0x000000000000000000000000fbed5a531344dbc88df2a24ddec0024c6fd2b80b, 0x00000000000000000000000014be2fe1849a8a3a52994cdbba1ec6a31c810073, (false, 0, 0), (false, 0, 0))]"
      ],
      "transaction": {
        "from": "0xd81252d06c67a2f3cf3b377d9aae5d827f14f3b1",
        "to": "0x70981620e5405acc1510645f39f1984a4fc2f4ac",
        "gas": "0x51199",
        "value": "0x0",
        "input": "0xdb6327dc0000000000000000000000000000000000000000000000000000000000000020000000000000000000000000000000000000000000000000000000000000000100000000000000000000000000000000000000000000000000000000000000200000000000000000000000000000000000000000000000001d9459fcfdd7108e0000000000000000000000000000000000000000000000000000000000000001000000000000000000000000000000000000000000000000000000000000014000000000000000000000000000000000000000000000000000000000000001800000000000000000000000000000000000000000000000000000000000000000000000000000000000000000000000000000000000000000000000000000000000000000000000000000000000000000000000000000000000000000000000000000000000000000000000000000000000000000000000000000000000000000000000000000000000000000000000000000000000000000000000000000000000000000000000000000000000000000000000000000000000000000000000000000000000000000000000000000000000000000000000000000000000000020000000000000000000000000fbed5a531344dbc88df2a24ddec0024c6fd2b80b000000000000000000000000000000000000000000000000000000000000002000000000000000000000000014be2fe1849a8a3a52994cdbba1ec6a31c810073",
        "nonce": "0xf4",
        "chainId": "0xaa36a7"
      },
      "additionalContracts": [],
      "isFixedGasLimit": false
    }
  ],
  "receipts": [
    {
      "status": "0x1",
      "cumulativeGasUsed": "0x633e6c",
      "logs": [
        {
          "address": "0x70981620e5405acc1510645f39f1984a4fc2f4ac",
          "topics": [
            "0x8d340f17e19058004c20453540862a9c62778504476f6756755cb33bcd6c38c2"
          ],
          "data": "0x0000000000000000000000000000000000000000000000001d9459fcfdd7108e0000000000000000000000000000000000000000000000000000000000000100000000000000000000000000000000000000000000000000000000000000000000000000000000000000000000000000000000000000000000000000000000000000000000000000000000000000000000000000000000000000000000000000000000000000000000000000000000000000000000000000000000000000000000000000000000000000000000000000000000000000000000000000000000000000000000000000000000000000000000000000000000000000000000000000000000000000000000000000000000000000000000000000000000000000002000000000000000000000000014be2fe1849a8a3a52994cdbba1ec6a31c810073",
          "blockHash": "0x19c4838cd6efcfd11b536340f6f7f28ddc4eca7c6a530bfd62e4dc352499e5d8",
          "blockNumber": "0x8acc38",
          "blockTimestamp": "0x68b2e970",
          "transactionHash": "0x035ef4995d67f24e33ca1308a8279078006c3148b4e378afe45baba369afa806",
          "transactionIndex": "0x41",
          "logIndex": "0x90",
          "removed": false
        }
      ],
      "logsBloom": "0x00000000000000400000000000000000000000000000000000000080000000000000000000000000000000000000000000000000000000000004000000000000000000000000000000000000000000000000000000000000000000000000000000000000000000000000000000000000000000000000000000000000000000000000000000000000000000000000000000000000000000000000000000000000200000000000000000000000000000000000000000000000000000000000000000000000000000000000040000000000000000000000000000000000000000000000000000000000000000000000000000000000000000000100000000000000",
      "type": "0x2",
      "transactionHash": "0x035ef4995d67f24e33ca1308a8279078006c3148b4e378afe45baba369afa806",
      "transactionIndex": "0x41",
      "blockHash": "0x19c4838cd6efcfd11b536340f6f7f28ddc4eca7c6a530bfd62e4dc352499e5d8",
      "blockNumber": "0x8acc38",
      "gasUsed": "0x3ab70",
      "effectiveGasPrice": "0x2ed720",
      "from": "0xd81252d06c67a2f3cf3b377d9aae5d827f14f3b1",
      "to": "0x70981620e5405acc1510645f39f1984a4fc2f4ac",
      "contractAddress": null
    }
  ],
  "libraries": [],
  "pending": [],
  "returns": {},
  "timestamp": 1756555633354,
  "chain": 11155111,
  "commit": "1ef49ce"
}