{
  "transactions": [
    {
      "hash": "0x11f5321876bba5d8a27d15d8f60b00bc880b84e708d7be11712296728a0e58cd",
      "transactionType": "CALL",
      "contractName": null,
      "contractAddress": "0x46bdbd6cba183b51109e0f03a6fbac216f82240e",
      "function": "applyChainUpdates((uint64,bool,bytes,bytes,(bool,uint128,uint128),(bool,uint128,uint128))[])",
      "arguments": [
        "[(2131427466778448014, true, 0x000000000000000000000000dc21fd1635ccb5a3e23b6384c8ea9bd30b41fa0c, 0x000000000000000000000000089993a28b4dfbd9659b5bab30208169c67d0d5f, (false, 0, 0), (false, 0, 0))]"
      ],
      "transaction": {
        "from": "0xd81252d06c67a2f3cf3b377d9aae5d827f14f3b1",
        "to": "0x46bdbd6cba183b51109e0f03a6fbac216f82240e",
        "gas": "0x511a8",
        "value": "0x0",
        "input": "0xdb6327dc0000000000000000000000000000000000000000000000000000000000000020000000000000000000000000000000000000000000000000000000000000000100000000000000000000000000000000000000000000000000000000000000200000000000000000000000000000000000000000000000001d9459fcfdd7108e0000000000000000000000000000000000000000000000000000000000000001000000000000000000000000000000000000000000000000000000000000014000000000000000000000000000000000000000000000000000000000000001800000000000000000000000000000000000000000000000000000000000000000000000000000000000000000000000000000000000000000000000000000000000000000000000000000000000000000000000000000000000000000000000000000000000000000000000000000000000000000000000000000000000000000000000000000000000000000000000000000000000000000000000000000000000000000000000000000000000000000000000000000000000000000000000000000000000000000000000000000000000000000000000000000000000000020000000000000000000000000dc21fd1635ccb5a3e23b6384c8ea9bd30b41fa0c0000000000000000000000000000000000000000000000000000000000000020000000000000000000000000089993a28b4dfbd9659b5bab30208169c67d0d5f",
        "nonce": "0xdf",
        "chainId": "0xaa36a7"
      },
      "additionalContracts": [],
      "isFixedGasLimit": false
    }
  ],
  "receipts": [
    {
      "status": "0x1",
      "cumulativeGasUsed": "0xb176c3",
      "logs": [
        {
          "address": "0x46bdbd6cba183b51109e0f03a6fbac216f82240e",
          "topics": [
            "0x8d340f17e19058004c20453540862a9c62778504476f6756755cb33bcd6c38c2"
          ],
          "data": "0x0000000000000000000000000000000000000000000000001d9459fcfdd7108e00000000000000000000000000000000000000000000000000000000000001000000000000000000000000000000000000000000000000000000000000000000000000000000000000000000000000000000000000000000000000000000000000000000000000000000000000000000000000000000000000000000000000000000000000000000000000000000000000000000000000000000000000000000000000000000000000000000000000000000000000000000000000000000000000000000000000000000000000000000000000000000000000000000000000000000000000000000000000000000000000000000000000000000000000000020000000000000000000000000089993a28b4dfbd9659b5bab30208169c67d0d5f",
          "blockHash": "0x691305552d377acf511b07cd2c6a5bca16bb492f7432d51497fefc47f1a0d7cc",
          "blockNumber": "0x8acb70",
          "blockTimestamp": "0x68b2dff8",
          "transactionHash": "0x11f5321876bba5d8a27d15d8f60b00bc880b84e708d7be11712296728a0e58cd",
          "transactionIndex": "0x4f",
          "logIndex": "0x96",
          "removed": false
        }
      ],
      "logsBloom": "0x80000000020000400000000000000000000000000000000000000000000000000000000000000000000000000000000000000000000000000004000000000000000000000000000000000000000000000000000000000000000000000000000000000000000000000000000000000000000000000000000000000000000000000000000000000000000000000000000000000000000000000000000000000000000000000000000000000000000000000000000000000000000000000000000000000000000000000000000000000000000000000000004000000000000000000000000000000000000000000000000000000000000000000100000000000000",
      "type": "0x2",
      "transactionHash": "0x11f5321876bba5d8a27d15d8f60b00bc880b84e708d7be11712296728a0e58cd",
      "transactionIndex": "0x4f",
      "blockHash": "0x691305552d377acf511b07cd2c6a5bca16bb492f7432d51497fefc47f1a0d7cc",
      "blockNumber": "0x8acb70",
      "gasUsed": "0x3ab7c",
      "effectiveGasPrice": "0x2ba3ad",
      "from": "0xd81252d06c67a2f3cf3b377d9aae5d827f14f3b1",
      "to": "0x46bdbd6cba183b51109e0f03a6fbac216f82240e",
      "contractAddress": null
    }
  ],
  "libraries": [],
  "pending": [],
  "returns": {},
  "timestamp": 1756553209261,
  "chain": 11155111,
  "commit": "1ef49ce"
}