{
  "transactions": [
    {
      "hash": "0x1db3fb5f30cc581035412989fcc2cdc9b97b21b246fa20ce81cc33440182c079",
      "transactionType": "CALL",
      "contractName": null,
      "contractAddress": "0xef261e1d8bdc87babc326fe770c1b658ac2819f1",
      "function": "applyChainUpdates((uint64,bool,bytes,bytes,(bool,uint128,uint128),(bool,uint128,uint128))[])",
      "arguments": [
        "[(2131427466778448014, true, 0x00000000000000000000000038edf33bd7ad7651a55f92b67cf8a34011dab2b1, 0x000000000000000000000000c9f3817c925be9e1505f3288441a6ed4736b5042, (false, 0, 0), (false, 0, 0))]"
      ],
      "transaction": {
        "from": "0xd81252d06c67a2f3cf3b377d9aae5d827f14f3b1",
        "to": "0xef261e1d8bdc87babc326fe770c1b658ac2819f1",
        "gas": "0x511a8",
        "value": "0x0",
        "input": "0xdb6327dc0000000000000000000000000000000000000000000000000000000000000020000000000000000000000000000000000000000000000000000000000000000100000000000000000000000000000000000000000000000000000000000000200000000000000000000000000000000000000000000000001d9459fcfdd7108e000000000000000000000000000000000000000000000000000000000000000100000000000000000000000000000000000000000000000000000000000001400000000000000000000000000000000000000000000000000000000000000180000000000000000000000000000000000000000000000000000000000000000000000000000000000000000000000000000000000000000000000000000000000000000000000000000000000000000000000000000000000000000000000000000000000000000000000000000000000000000000000000000000000000000000000000000000000000000000000000000000000000000000000000000000000000000000000000000000000000000000000000000000000000000000000000000000000000000000000000000000000000000000000000000000000000002000000000000000000000000038edf33bd7ad7651a55f92b67cf8a34011dab2b10000000000000000000000000000000000000000000000000000000000000020000000000000000000000000c9f3817c925be9e1505f3288441a6ed4736b5042",
        "nonce": "0x9a",
        "chainId": "0xaa36a7"
      },
      "additionalContracts": [],
      "isFixedGasLimit": false
    }
  ],
  "receipts": [
    {
      "status": "0x1",
      "cumulativeGasUsed": "0x15419e7",
      "logs": [
        {
          "address": "0xef261e1d8bdc87babc326fe770c1b658ac2819f1",
          "topics": [
            "0x8d340f17e19058004c20453540862a9c62778504476f6756755cb33bcd6c38c2"
          ],
          "data": "0x0000000000000000000000000000000000000000000000001d9459fcfdd7108e00000000000000000000000000000000000000000000000000000000000001000000000000000000000000000000000000000000000000000000000000000000000000000000000000000000000000000000000000000000000000000000000000000000000000000000000000000000000000000000000000000000000000000000000000000000000000000000000000000000000000000000000000000000000000000000000000000000000000000000000000000000000000000000000000000000000000000000000000000000000000000000000000000000000000000000000000000000000000000000000000000000000000000000000000000020000000000000000000000000c9f3817c925be9e1505f3288441a6ed4736b5042",
          "blockHash": "0x3f847274cf0bc077668ae21f9230688068f68e203a54797e868f90600450b91e",
          "blockNumber": "0x8ab8a0",
          "blockTimestamp": "0x68b1fc70",
          "transactionHash": "0x1db3fb5f30cc581035412989fcc2cdc9b97b21b246fa20ce81cc33440182c079",
          "transactionIndex": "0x4e",
          "logIndex": "0xbe",
          "removed": false
        }
      ],
      "logsBloom": "0x00000000000000400000000000000000000000000000000000000000000000000000000000000000000000000000000000400000000000000004000000000000000000000000000000000000000000000000000000000000000000000000000000000000000000000000000000000000000000000000000000000000000000000000000000001000000000000000000000000000000000000000000000000000000000000000000000000000000000000000000000000000000000000000000000000000000010000000000000000000000000000000000000000000000000000000000000000000000000000000000000000000000000000100000000000000",
      "type": "0x2",
      "transactionHash": "0x1db3fb5f30cc581035412989fcc2cdc9b97b21b246fa20ce81cc33440182c079",
      "transactionIndex": "0x4e",
      "blockHash": "0x3f847274cf0bc077668ae21f9230688068f68e203a54797e868f90600450b91e",
      "blockNumber": "0x8ab8a0",
      "gasUsed": "0x3ab7c",
      "effectiveGasPrice": "0x162d3f",
      "from": "0xd81252d06c67a2f3cf3b377d9aae5d827f14f3b1",
      "to": "0xef261e1d8bdc87babc326fe770c1b658ac2819f1",
      "contractAddress": null
    }
  ],
  "libraries": [],
  "pending": [],
  "returns": {},
  "timestamp": 1756494962172,
  "chain": 11155111,
  "commit": null
}