{
  "transactions": [
    {
      "hash": "0x3f965fbadf303d19673150a6ce7f0d902a0948b08250d8447be54ced813692ac",
      "transactionType": "CALL",
      "contractName": null,
      "contractAddress": "0x65ab9bc34399c92330483eedaf29de555707b41a",
      "function": "applyChainUpdates((uint64,bool,bytes,bytes,(bool,uint128,uint128),(bool,uint128,uint128))[])",
      "arguments": [
        "[(2131427466778448014, true, 0x000000000000000000000000071ec974222d54336457c1bc432c65cf76e741d9, 0x00000000000000000000000090cd5f44a2a80f7548d0b7a84ca8b2b2899c9663, (false, 0, 0), (false, 0, 0))]"
      ],
      "transaction": {
        "from": "0xd81252d06c67a2f3cf3b377d9aae5d827f14f3b1",
        "to": "0x65ab9bc34399c92330483eedaf29de555707b41a",
        "gas": "0x511a8",
        "value": "0x0",
        "input": "0xdb6327dc0000000000000000000000000000000000000000000000000000000000000020000000000000000000000000000000000000000000000000000000000000000100000000000000000000000000000000000000000000000000000000000000200000000000000000000000000000000000000000000000001d9459fcfdd7108e0000000000000000000000000000000000000000000000000000000000000001000000000000000000000000000000000000000000000000000000000000014000000000000000000000000000000000000000000000000000000000000001800000000000000000000000000000000000000000000000000000000000000000000000000000000000000000000000000000000000000000000000000000000000000000000000000000000000000000000000000000000000000000000000000000000000000000000000000000000000000000000000000000000000000000000000000000000000000000000000000000000000000000000000000000000000000000000000000000000000000000000000000000000000000000000000000000000000000000000000000000000000000000000000000000000000000020000000000000000000000000071ec974222d54336457c1bc432c65cf76e741d9000000000000000000000000000000000000000000000000000000000000002000000000000000000000000090cd5f44a2a80f7548d0b7a84ca8b2b2899c9663",
        "nonce": "0xd1",
        "chainId": "0xaa36a7"
      },
      "additionalContracts": [],
      "isFixedGasLimit": false
    }
  ],
  "receipts": [
    {
      "status": "0x1",
      "cumulativeGasUsed": "0xb6bf01",
      "logs": [
        {
          "address": "0x65ab9bc34399c92330483eedaf29de555707b41a",
          "topics": [
            "0x8d340f17e19058004c20453540862a9c62778504476f6756755cb33bcd6c38c2"
          ],
          "data": "0x0000000000000000000000000000000000000000000000001d9459fcfdd7108e0000000000000000000000000000000000000000000000000000000000000100000000000000000000000000000000000000000000000000000000000000000000000000000000000000000000000000000000000000000000000000000000000000000000000000000000000000000000000000000000000000000000000000000000000000000000000000000000000000000000000000000000000000000000000000000000000000000000000000000000000000000000000000000000000000000000000000000000000000000000000000000000000000000000000000000000000000000000000000000000000000000000000000000000000000002000000000000000000000000090cd5f44a2a80f7548d0b7a84ca8b2b2899c9663",
          "blockHash": "0x1476b5af2eeee110031bbb290ed211f357b8945aabca2ae068a9c60f02502772",
          "blockNumber": "0x8acaac",
          "blockTimestamp": "0x68b2d6c8",
          "transactionHash": "0x3f965fbadf303d19673150a6ce7f0d902a0948b08250d8447be54ced813692ac",
          "transactionIndex": "0x5b",
          "logIndex": "0xe2",
          "removed": false
        }
      ],
      "logsBloom": "0x00000000000000400000000000000000000000000000000000000000000000000000000000000000000000000000000000000000000000200004000000010000000000000000000000000000000000000000000000040000000000000000000000000000000000000000000000000000000000000000000000000000000000000000000000000000000000000000000000000000000000000000000000000000000000000000000000000000000000000000000000000000000000000000000000000000000000000000000000000000000000000000000000000000000000000000000000000000000000000000000000000000000000000100000000000000",
      "type": "0x2",
      "transactionHash": "0x3f965fbadf303d19673150a6ce7f0d902a0948b08250d8447be54ced813692ac",
      "transactionIndex": "0x5b",
      "blockHash": "0x1476b5af2eeee110031bbb290ed211f357b8945aabca2ae068a9c60f02502772",
      "blockNumber": "0x8acaac",
      "gasUsed": "0x3ab7c",
      "effectiveGasPrice": "0x204514",
      "from": "0xd81252d06c67a2f3cf3b377d9aae5d827f14f3b1",
      "to": "0x65ab9bc34399c92330483eedaf29de555707b41a",
      "contractAddress": null
    }
  ],
  "libraries": [],
  "pending": [],
  "returns": {},
  "timestamp": 1756550858127,
  "chain": 11155111,
  "commit": "1ef49ce"
}