{
  "transactions": [
    {
      "hash": "0x2020a8e239b836f24a31275178387a31bbccf12458597037f7196b1f2742abc9",
      "transactionType": "CALL",
      "contractName": null,
      "contractAddress": "0x3081672aa67199fedb357a91c46c9718aca14014",
      "function": "applyChainUpdates((uint64,bool,bytes,bytes,(bool,uint128,uint128),(bool,uint128,uint128))[])",
      "arguments": [
        "[(2131427466778448014, true, 0x0000000000000000000000002432dc3847a04945fd80c0a81b4ebdb7c948d93f, 0x0000000000000000000000007d0176b839a37d6d1e0c1b814f056d39091baec6, (false, 0, 0), (false, 0, 0))]"
      ],
      "transaction": {
        "from": "0xd81252d06c67a2f3cf3b377d9aae5d827f14f3b1",
        "to": "0x3081672aa67199fedb357a91c46c9718aca14014",
        "gas": "0x511a8",
        "value": "0x0",
        "input": "0xdb6327dc0000000000000000000000000000000000000000000000000000000000000020000000000000000000000000000000000000000000000000000000000000000100000000000000000000000000000000000000000000000000000000000000200000000000000000000000000000000000000000000000001d9459fcfdd7108e00000000000000000000000000000000000000000000000000000000000000010000000000000000000000000000000000000000000000000000000000000140000000000000000000000000000000000000000000000000000000000000018000000000000000000000000000000000000000000000000000000000000000000000000000000000000000000000000000000000000000000000000000000000000000000000000000000000000000000000000000000000000000000000000000000000000000000000000000000000000000000000000000000000000000000000000000000000000000000000000000000000000000000000000000000000000000000000000000000000000000000000000000000000000000000000000000000000000000000000000000000000000000000000000000000000000000200000000000000000000000002432dc3847a04945fd80c0a81b4ebdb7c948d93f00000000000000000000000000000000000000000000000000000000000000200000000000000000000000007d0176b839a37d6d1e0c1b814f056d39091baec6",
        "nonce": "0xc3",
        "chainId": "0xaa36a7"
      },
      "additionalContracts": [],
      "isFixedGasLimit": false
    }
  ],
  "receipts": [
    {
      "status": "0x1",
      "cumulativeGasUsed": "0xa9fd7f",
      "logs": [
        {
          "address": "0x3081672aa67199fedb357a91c46c9718aca14014",
          "topics": [
            "0x8d340f17e19058004c20453540862a9c62778504476f6756755cb33bcd6c38c2"
          ],
          "data": "0x0000000000000000000000000000000000000000000000001d9459fcfdd7108e000000000000000000000000000000000000000000000000000000000000010000000000000000000000000000000000000000000000000000000000000000000000000000000000000000000000000000000000000000000000000000000000000000000000000000000000000000000000000000000000000000000000000000000000000000000000000000000000000000000000000000000000000000000000000000000000000000000000000000000000000000000000000000000000000000000000000000000000000000000000000000000000000000000000000000000000000000000000000000000000000000000000000000000000000000200000000000000000000000007d0176b839a37d6d1e0c1b814f056d39091baec6",
          "blockHash": "0x4b157a4c3bea5849f129ee73607b2d176265979550e866c6fd81a7fd7108fa2e",
          "blockNumber": "0x8aca50",
          "blockTimestamp": "0x68b2d278",
          "transactionHash": "0x2020a8e239b836f24a31275178387a31bbccf12458597037f7196b1f2742abc9",
          "transactionIndex": "0x59",
          "logIndex": "0x116",
          "removed": false
        }
      ],
      "logsBloom": "0x00000000000000400000000000000000000000000000000000000000000000000000000000000000000000000000000000000000000000000004000000000008000000000000000000000000000000000000000000000000000000000000000000000000000000000000000000000000000000000000020000000000000000000000000000000000000000000000000000000000000000000000000000000000000000000000000000000000000000000000000000000000000000000000000000000000000000000000000000000000000000000000000000000000000000000000000000000000000000000000000000000000000000080100000000000000",
      "type": "0x2",
      "transactionHash": "0x2020a8e239b836f24a31275178387a31bbccf12458597037f7196b1f2742abc9",
      "transactionIndex": "0x59",
      "blockHash": "0x4b157a4c3bea5849f129ee73607b2d176265979550e866c6fd81a7fd7108fa2e",
      "blockNumber": "0x8aca50",
      "gasUsed": "0x3ab7c",
      "effectiveGasPrice": "0x23e5ec",
      "from": "0xd81252d06c67a2f3cf3b377d9aae5d827f14f3b1",
      "to": "0x3081672aa67199fedb357a91c46c9718aca14014",
      "contractAddress": null
    }
  ],
  "libraries": [],
  "pending": [],
  "returns": {},
  "timestamp": 1756549755124,
  "chain": 11155111,
  "commit": "1ef49ce"
}