{
  "transactions": [
    {
      "hash": "0x8a22f8054e050cbc397d3973012dcbef742d274b9e981e9406da6fe16f70c9f5",
      "transactionType": "CALL",
      "contractName": null,
      "contractAddress": "0x779877a7b0d9e8603169ddbd7836e478b4624789",
      "function": "approve(address,uint256)",
      "arguments": [
        "0x0BF3dE8c5D3e8A2B34D2BEeB17ABfCeBaf363A59",
        "9162774400282471"
      ],
      "transaction": {
        "from": "0xd81252d06c67a2f3cf3b377d9aae5d827f14f3b1",
        "to": "0x779877a7b0d9e8603169ddbd7836e478b4624789",
        "gas": "0x1081f",
        "value": "0x0",
        "input": "0x095ea7b30000000000000000000000000bf3de8c5d3e8a2b34d2beeb17abfcebaf363a5900000000000000000000000000000000000000000000000000208d7ea9492f67",
        "nonce": "0xa5",
        "chainId": "0xaa36a7"
      },
      "additionalContracts": [],
      "isFixedGasLimit": false
    },
    {
      "hash": "0x9c7b007c89728c9fe8be65c94ec6a4d1da558daa3933a42864b173a6779fecc3",
      "transactionType": "CALL",
      "contractName": null,
      "contractAddress": "0xc52df80b57d30ab0b46519e10673f4ef408d4207",
      "function": "approve(address,uint256)",
      "arguments": [
        "0x0BF3dE8c5D3e8A2B34D2BEeB17ABfCeBaf363A59",
        "1000000000"
      ],
      "transaction": {
        "from": "0xd81252d06c67a2f3cf3b377d9aae5d827f14f3b1",
        "to": "0xc52df80b57d30ab0b46519e10673f4ef408d4207",
        "gas": "0x10693",
        "value": "0x0",
        "input": "0x095ea7b30000000000000000000000000bf3de8c5d3e8a2b34d2beeb17abfcebaf363a59000000000000000000000000000000000000000000000000000000003b9aca00",
        "nonce": "0xa6",
        "chainId": "0xaa36a7"
      },
      "additionalContracts": [],
      "isFixedGasLimit": false
    },
    {
      "hash": "0x730830ebe2dfa21bda8faea9f7c239d7cd08361032658599f39d3e50b90574fd",
      "transactionType": "CALL",
      "contractName": null,
      "contractAddress": "0x0bf3de8c5d3e8a2b34d2beeb17abfcebaf363a59",
      "function": "ccipSend(uint64,(bytes,bytes,(address,uint256)[],address,bytes))",
      "arguments": [
        "2131427466778448014",
        "(0x000000000000000000000000d81252d06c67a2f3cf3b377d9aae5d827f14f3b1, 0x, [(0xc52df80B57D30ab0B46519e10673f4EF408d4207, 1000000000)], 0x779877A7B0D9E8603169DdbD7836e478b4624789, 0x97a657c90000000000000000000000000000000000000000000000000000000000000000)"
      ],
      "transaction": {
        "from": "0xd81252d06c67a2f3cf3b377d9aae5d827f14f3b1",
        "to": "0x0bf3de8c5d3e8a2b34d2beeb17abfcebaf363a59",
        "gas": "0x57f65",
        "value": "0x0",
        "input": "0x96f4e9f90000000000000000000000000000000000000000000000001d9459fcfdd7108e000000000000000000000000000000000000000000000000000000000000004000000000000000000000000000000000000000000000000000000000000000a000000000000000000000000000000000000000000000000000000000000000e00000000000000000000000000000000000000000000000000000000000000100000000000000000000000000779877a7b0d9e8603169ddbd7836e478b462478900000000000000000000000000000000000000000000000000000000000001600000000000000000000000000000000000000000000000000000000000000020000000000000000000000000d81252d06c67a2f3cf3b377d9aae5d827f14f3b100000000000000000000000000000000000000000000000000000000000000000000000000000000000000000000000000000000000000000000000000000001000000000000000000000000c52df80b57d30ab0b46519e10673f4ef408d4207000000000000000000000000000000000000000000000000000000003b9aca00000000000000000000000000000000000000000000000000000000000000002497a657c9000000000000000000000000000000000000000000000000000000000000000000000000000000000000000000000000000000000000000000000000",
        "nonce": "0xa7",
        "chainId": "0xaa36a7"
      },
      "additionalContracts": [],
      "isFixedGasLimit": false
    }
  ],
  "receipts": [
    {
      "status": "0x1",
      "cumulativeGasUsed": "0xa55913",
      "logs": [
        {
          "address": "0x779877a7b0d9e8603169ddbd7836e478b4624789",
          "topics": [
            "0x8c5be1e5ebec7d5bd14f71427d1e84f3dd0314c0f7b2291e5b200ac8c7c3b925",
            "0x000000000000000000000000d81252d06c67a2f3cf3b377d9aae5d827f14f3b1",
            "0x0000000000000000000000000bf3de8c5d3e8a2b34d2beeb17abfcebaf363a59"
          ],
          "data": "0x00000000000000000000000000000000000000000000000000208d7ea9492f67",
          "blockHash": "0x840c2b27f3702110b2590ca1123e8638c1a0fb9ff1b8d189136dc361a6f7c761",
          "blockNumber": "0x8ab935",
          "blockTimestamp": "0x68b20378",
          "transactionHash": "0x8a22f8054e050cbc397d3973012dcbef742d274b9e981e9406da6fe16f70c9f5",
          "transactionIndex": "0x5d",
          "logIndex": "0x88",
          "removed": false
        }
      ],
      "logsBloom": "0x00000004000040000000000000000000000000000000000000000000000000000000000000000000000000000000000000000000000000000000000000200000000000000000000000000000000000020000000000000000000000000000000000000000000140000000000000000000000000000000000000000000000000000000000000000000000000000000800000000000000000000000000000000000020000000000080000000000000000000000000000000000000000000000000000000000000000000000000000000000000000000000000100000000000000000010000000000000000000000000000000000200000000000000000000000000",
      "type": "0x2",
      "transactionHash": "0x8a22f8054e050cbc397d3973012dcbef742d274b9e981e9406da6fe16f70c9f5",
      "transactionIndex": "0x5d",
      "blockHash": "0x840c2b27f3702110b2590ca1123e8638c1a0fb9ff1b8d189136dc361a6f7c761",
      "blockNumber": "0x8ab935",
      "gasUsed": "0xb499",
      "effectiveGasPrice": "0x1284cd",
      "from": "0xd81252d06c67a2f3cf3b377d9aae5d827f14f3b1",
      "to": "0x779877a7b0d9e8603169ddbd7836e478b4624789",
      "contractAddress": null
    },
    {
      "status": "0x1",
      "cumulativeGasUsed": "0xa60c9d",
      "logs": [
        {
          "address": "0xc52df80b57d30ab0b46519e10673f4ef408d4207",
          "topics": [
            "0x8c5be1e5ebec7d5bd14f71427d1e84f3dd0314c0f7b2291e5b200ac8c7c3b925",
            "0x000000000000000000000000d81252d06c67a2f3cf3b377d9aae5d827f14f3b1",
            "0x0000000000000000000000000bf3de8c5d3e8a2b34d2beeb17abfcebaf363a59"
          ],
          "data": "0x000000000000000000000000000000000000000000000000000000003b9aca00",
          "blockHash": "0x840c2b27f3702110b2590ca1123e8638c1a0fb9ff1b8d189136dc361a6f7c761",
          "blockNumber": "0x8ab935",
          "blockTimestamp": "0x68b20378",
          "transactionHash": "0x9c7b007c89728c9fe8be65c94ec6a4d1da558daa3933a42864b173a6779fecc3",
          "transactionIndex": "0x5e",
          "logIndex": "0x89",
          "removed": false
        }
      ],
      "logsBloom": "0x00000000000040000000000000000000000000000000000000000000000000000000000000000000000000000000000000000000000000000000000000200000000000000000000000000000000000020002000000000000000000000000000000000000000140000000000000000000000000000000000000000000000000000000000080000000000000000000000000000000000000000000000000000000020000000000080000000000000000000000000000000000000000000000000000000000000000000000000000000000000000000000000000000000000000000010000000000000000000000000000000000200001000000000000000000000",
      "type": "0x2",
      "transactionHash": "0x9c7b007c89728c9fe8be65c94ec6a4d1da558daa3933a42864b173a6779fecc3",
      "transactionIndex": "0x5e",
      "blockHash": "0x840c2b27f3702110b2590ca1123e8638c1a0fb9ff1b8d189136dc361a6f7c761",
      "blockNumber": "0x8ab935",
      "gasUsed": "0xb38a",
      "effectiveGasPrice": "0x1284cd",
      "from": "0xd81252d06c67a2f3cf3b377d9aae5d827f14f3b1",
      "to": "0xc52df80b57d30ab0b46519e10673f4ef408d4207",
      "contractAddress": null
    },
    {
      "status": "0x1",
      "cumulativeGasUsed": "0xa9cef0",
      "logs": [
        {
          "address": "0x779877a7b0d9e8603169ddbd7836e478b4624789",
          "topics": [
            "0xddf252ad1be2c89b69c2b068fc378daa952ba7f163c4a11628f55a4df523b3ef",
            "0x000000000000000000000000d81252d06c67a2f3cf3b377d9aae5d827f14f3b1",
            "0x0000000000000000000000007a7f18dbdc62e5348f920691cc17dc7b494d8f1a"
          ],
          "data": "0x00000000000000000000000000000000000000000000000000208d7ea9492f67",
          "blockHash": "0x840c2b27f3702110b2590ca1123e8638c1a0fb9ff1b8d189136dc361a6f7c761",
          "blockNumber": "0x8ab935",
          "blockTimestamp": "0x68b20378",
          "transactionHash": "0x730830ebe2dfa21bda8faea9f7c239d7cd08361032658599f39d3e50b90574fd",
          "transactionIndex": "0x5f",
          "logIndex": "0x8a",
          "removed": false
        },
        {
          "address": "0x779877a7b0d9e8603169ddbd7836e478b4624789",
          "topics": [
            "0x8c5be1e5ebec7d5bd14f71427d1e84f3dd0314c0f7b2291e5b200ac8c7c3b925",
            "0x000000000000000000000000d81252d06c67a2f3cf3b377d9aae5d827f14f3b1",
            "0x0000000000000000000000000bf3de8c5d3e8a2b34d2beeb17abfcebaf363a59"
          ],
          "data": "0x0000000000000000000000000000000000000000000000000000000000000000",
          "blockHash": "0x840c2b27f3702110b2590ca1123e8638c1a0fb9ff1b8d189136dc361a6f7c761",
          "blockNumber": "0x8ab935",
          "blockTimestamp": "0x68b20378",
          "transactionHash": "0x730830ebe2dfa21bda8faea9f7c239d7cd08361032658599f39d3e50b90574fd",
          "transactionIndex": "0x5f",
          "logIndex": "0x8b",
          "removed": false
        },
        {
          "address": "0xc52df80b57d30ab0b46519e10673f4ef408d4207",
          "topics": [
            "0xddf252ad1be2c89b69c2b068fc378daa952ba7f163c4a11628f55a4df523b3ef",
            "0x0000000000000000000000000000000000000000000000000000000000000000",
            "0x000000000000000000000000d81252d06c67a2f3cf3b377d9aae5d827f14f3b1"
          ],
          "data": "0x000000000000000000000000000000000000000000000000000000000000012c",
          "blockHash": "0x840c2b27f3702110b2590ca1123e8638c1a0fb9ff1b8d189136dc361a6f7c761",
          "blockNumber": "0x8ab935",
          "blockTimestamp": "0x68b20378",
          "transactionHash": "0x730830ebe2dfa21bda8faea9f7c239d7cd08361032658599f39d3e50b90574fd",
          "transactionIndex": "0x5f",
          "logIndex": "0x8c",
          "removed": false
        },
        {
          "address": "0xc52df80b57d30ab0b46519e10673f4ef408d4207",
          "topics": [
            "0xddf252ad1be2c89b69c2b068fc378daa952ba7f163c4a11628f55a4df523b3ef",
            "0x0000000000000000000000000000000000000000000000000000000000000000",
            "0x0000000000000000000000008dd3fd4db26bf1785f14fbb7e9208c9aafcc77bb"
          ],
          "data": "0x0000000000000000000000000000000000000000000000000000000000000000",
          "blockHash": "0x840c2b27f3702110b2590ca1123e8638c1a0fb9ff1b8d189136dc361a6f7c761",
          "blockNumber": "0x8ab935",
          "blockTimestamp": "0x68b20378",
          "transactionHash": "0x730830ebe2dfa21bda8faea9f7c239d7cd08361032658599f39d3e50b90574fd",
          "transactionIndex": "0x5f",
          "logIndex": "0x8d",
          "removed": false
        },
        {
          "address": "0xc52df80b57d30ab0b46519e10673f4ef408d4207",
          "topics": [
            "0xddf252ad1be2c89b69c2b068fc378daa952ba7f163c4a11628f55a4df523b3ef",
            "0x000000000000000000000000d81252d06c67a2f3cf3b377d9aae5d827f14f3b1",
            "0x0000000000000000000000008dd3fd4db26bf1785f14fbb7e9208c9aafcc77bb"
          ],
          "data": "0x000000000000000000000000000000000000000000000000000000003b9aca00",
          "blockHash": "0x840c2b27f3702110b2590ca1123e8638c1a0fb9ff1b8d189136dc361a6f7c761",
          "blockNumber": "0x8ab935",
          "blockTimestamp": "0x68b20378",
          "transactionHash": "0x730830ebe2dfa21bda8faea9f7c239d7cd08361032658599f39d3e50b90574fd",
          "transactionIndex": "0x5f",
          "logIndex": "0x8e",
          "removed": false
        },
        {
          "address": "0xc52df80b57d30ab0b46519e10673f4ef408d4207",
          "topics": [
            "0xddf252ad1be2c89b69c2b068fc378daa952ba7f163c4a11628f55a4df523b3ef",
            "0x0000000000000000000000000000000000000000000000000000000000000000",
            "0x0000000000000000000000008dd3fd4db26bf1785f14fbb7e9208c9aafcc77bb"
          ],
          "data": "0x0000000000000000000000000000000000000000000000000000000000000000",
          "blockHash": "0x840c2b27f3702110b2590ca1123e8638c1a0fb9ff1b8d189136dc361a6f7c761",
          "blockNumber": "0x8ab935",
          "blockTimestamp": "0x68b20378",
          "transactionHash": "0x730830ebe2dfa21bda8faea9f7c239d7cd08361032658599f39d3e50b90574fd",
          "transactionIndex": "0x5f",
          "logIndex": "0x8f",
          "removed": false
        },
        {
          "address": "0xc52df80b57d30ab0b46519e10673f4ef408d4207",
          "topics": [
            "0xddf252ad1be2c89b69c2b068fc378daa952ba7f163c4a11628f55a4df523b3ef",
            "0x0000000000000000000000008dd3fd4db26bf1785f14fbb7e9208c9aafcc77bb",
            "0x0000000000000000000000000000000000000000000000000000000000000000"
          ],
          "data": "0x000000000000000000000000000000000000000000000000000000003b9aca00",
          "blockHash": "0x840c2b27f3702110b2590ca1123e8638c1a0fb9ff1b8d189136dc361a6f7c761",
          "blockNumber": "0x8ab935",
          "blockTimestamp": "0x68b20378",
          "transactionHash": "0x730830ebe2dfa21bda8faea9f7c239d7cd08361032658599f39d3e50b90574fd",
          "transactionIndex": "0x5f",
          "logIndex": "0x90",
          "removed": false
        },
        {
          "address": "0x7a7f18dbdc62e5348f920691cc17dc7b494d8f1a",
          "topics": [
            "0xd0c3c799bf9e2639de44391e7f524d229b2b55f5b1ea94b2bf7da42f7243dddd"
          ],
          "data": "0x0000000000000000000000000000000000000000000000000000000000000020000000000000000000000000000000000000000000000000de41ba4fc9d91ad9000000000000000000000000d81252d06c67a2f3cf3b377d9aae5d827f14f3b1000000000000000000000000d81252d06c67a2f3cf3b377d9aae5d827f14f3b1000000000000000000000000000000000000000000000000000000000000016e000000000000000000000000000000000000000000000000000000000000000000000000000000000000000000000000000000000000000000000000000000000000000000000000000000000000000000000000000000000000000000000002000000000000000000000000779877a7b0d9e8603169ddbd7836e478b462478900000000000000000000000000000000000000000000000000208d7ea9492f6700000000000000000000000000000000000000000000000000000000000001a000000000000000000000000000000000000000000000000000000000000001c00000000000000000000000000000000000000000000000000000000000000220a7286edb3cc7ddc4d7a6825cd3302eadf121556e8e1ac3bb6755f72bff51019300000000000000000000000000000000000000000000000000000000000000000000000000000000000000000000000000000000000000000000000000000001000000000000000000000000c52df80b57d30ab0b46519e10673f4ef408d4207000000000000000000000000000000000000000000000000000000003b9aca000000000000000000000000000000000000000000000000000000000000000001000000000000000000000000000000000000000000000000000000000000002000000000000000000000000000000000000000000000000000000000000001600000000000000000000000000000000000000000000000000000000000000020000000000000000000000000000000000000000000000000000000000000008000000000000000000000000000000000000000000000000000000000000000c000000000000000000000000000000000000000000000000000000000000001000000000000000000000000000000000000000000000000000000000000015f9000000000000000000000000000000000000000000000000000000000000000200000000000000000000000008dd3fd4db26bf1785f14fbb7e9208c9aafcc77bb0000000000000000000000000000000000000000000000000000000000000020000000000000000000000000d53a9d638c1e8535ad9eedfae5abb2098a3ab2c300000000000000000000000000000000000000000000000000000000000000200000000000000000000000000000000000000000000000000000000ba43b7400",
          "blockHash": "0x840c2b27f3702110b2590ca1123e8638c1a0fb9ff1b8d189136dc361a6f7c761",
          "blockNumber": "0x8ab935",
          "blockTimestamp": "0x68b20378",
          "transactionHash": "0x730830ebe2dfa21bda8faea9f7c239d7cd08361032658599f39d3e50b90574fd",
          "transactionIndex": "0x5f",
          "logIndex": "0x91",
          "removed": false
        }
      ],
      "logsBloom": "0x00000084000040000000000000000000000000000000000800000000000000000000000000000080400000000000000000000001000000000002000000200000000000000000000000000008000000020002000000000000000000000000000000000000020140000000000000000800000000000000000000000010000000000000000081000000000000000000800000010000000400000000000000000000020000000000080400000000000000000000000000000000000100000000000000000002000000000000000000000000000000000000000100000000000020000010000000000000000000000000000004000200001000000000000000000000",
      "type": "0x2",
      "transactionHash": "0x730830ebe2dfa21bda8faea9f7c239d7cd08361032658599f39d3e50b90574fd",
      "transactionIndex": "0x5f",
      "blockHash": "0x840c2b27f3702110b2590ca1123e8638c1a0fb9ff1b8d189136dc361a6f7c761",
      "blockNumber": "0x8ab935",
      "gasUsed": "0x3c253",
      "effectiveGasPrice": "0x1284cd",
      "from": "0xd81252d06c67a2f3cf3b377d9aae5d827f14f3b1",
      "to": "0x0bf3de8c5d3e8a2b34d2beeb17abfcebaf363a59",
      "contractAddress": null
    }
  ],
  "libraries": [],
  "pending": [],
  "returns": {},
  "timestamp": 1756496761183,
  "chain": 11155111,
  "commit": null
}